{
	"RegisterAccess.sol": {
		"RegisterAccess": {
			"abi": [
				{
					"inputs": [],
					"stateMutability": "nonpayable",
					"type": "constructor"
				},
				{
					"anonymous": false,
					"inputs": [
						{
							"indexed": false,
							"internalType": "string",
							"name": "oldInfo",
							"type": "string"
						},
						{
							"indexed": false,
							"internalType": "string",
							"name": "newInfo",
							"type": "string"
						}
					],
					"name": "InfoChange",
					"type": "event"
				},
				{
					"inputs": [
						{
							"internalType": "string",
							"name": "_info",
							"type": "string"
						}
					],
					"name": "addInfo",
					"outputs": [
						{
							"internalType": "uint256",
							"name": "index",
							"type": "uint256"
						}
					],
					"stateMutability": "nonpayable",
					"type": "function"
				},
				{
					"inputs": [
						{
							"internalType": "address",
							"name": "_member",
							"type": "address"
						}
					],
					"name": "addMember",
					"outputs": [],
					"stateMutability": "nonpayable",
					"type": "function"
				},
				{
					"inputs": [
						{
							"internalType": "address",
							"name": "_member",
							"type": "address"
						}
					],
					"name": "delMember",
					"outputs": [],
					"stateMutability": "nonpayable",
					"type": "function"
				},
				{
					"inputs": [
						{
							"internalType": "uint256",
							"name": "index",
							"type": "uint256"
						}
					],
					"name": "getInfo",
					"outputs": [
						{
							"internalType": "string",
							"name": "",
							"type": "string"
						}
					],
					"stateMutability": "view",
					"type": "function"
				},
				{
					"inputs": [],
					"name": "listInfo",
					"outputs": [
						{
							"internalType": "string[]",
							"name": "",
							"type": "string[]"
						}
					],
					"stateMutability": "view",
					"type": "function"
				},
				{
					"inputs": [],
					"name": "owner",
					"outputs": [
						{
							"internalType": "address",
							"name": "",
							"type": "address"
						}
					],
					"stateMutability": "view",
					"type": "function"
				},
				{
					"inputs": [
						{
							"internalType": "uint256",
							"name": "index",
							"type": "uint256"
						},
						{
							"internalType": "string",
							"name": "_info",
							"type": "string"
						}
					],
					"name": "setInfo",
					"outputs": [],
					"stateMutability": "nonpayable",
					"type": "function"
				},
				{
					"inputs": [
						{
							"internalType": "address",
							"name": "",
							"type": "address"
						}
					],
					"name": "whiteList",
					"outputs": [
						{
							"internalType": "bool",
							"name": "",
							"type": "bool"
						}
					],
					"stateMutability": "view",
					"type": "function"
				}
			],
			"devdoc": {
				"kind": "dev",
				"methods": {},
				"version": 1
			},
			"evm": {
				"assembly": "    /* \"RegisterAccess.sol\":71:1338  contract RegisterAccess {... */\n  mstore(0x40, 0x80)\n    /* \"RegisterAccess.sol\":209:299  constructor() {... */\n  callvalue\n  dup1\n  iszero\n  tag_1\n  jumpi\n  0x00\n  dup1\n  revert\ntag_1:\n  pop\n    /* \"RegisterAccess.sol\":242:252  msg.sender */\n  caller\n    /* \"RegisterAccess.sol\":234:239  owner */\n  0x01\n  0x00\n    /* \"RegisterAccess.sol\":234:252  owner = msg.sender */\n  0x0100\n  exp\n  dup2\n  sload\n  dup2\n  0xffffffffffffffffffffffffffffffffffffffff\n  mul\n  not\n  and\n  swap1\n  dup4\n  0xffffffffffffffffffffffffffffffffffffffff\n  and\n  mul\n  or\n  swap1\n  sstore\n  pop\n    /* \"RegisterAccess.sol\":287:291  true */\n  0x01\n    /* \"RegisterAccess.sol\":263:272  whiteList */\n  0x02\n    /* \"RegisterAccess.sol\":263:284  whiteList[msg.sender] */\n  0x00\n    /* \"RegisterAccess.sol\":273:283  msg.sender */\n  caller\n    /* \"RegisterAccess.sol\":263:284  whiteList[msg.sender] */\n  0xffffffffffffffffffffffffffffffffffffffff\n  and\n  0xffffffffffffffffffffffffffffffffffffffff\n  and\n  dup2\n  mstore\n  0x20\n  add\n  swap1\n  dup2\n  mstore\n  0x20\n  add\n  0x00\n  keccak256\n  0x00\n    /* \"RegisterAccess.sol\":263:291  whiteList[msg.sender] = true */\n  0x0100\n  exp\n  dup2\n  sload\n  dup2\n  0xff\n  mul\n  not\n  and\n  swap1\n  dup4\n  iszero\n  iszero\n  mul\n  or\n  swap1\n  sstore\n  pop\n    /* \"RegisterAccess.sol\":71:1338  contract RegisterAccess {... */\n  dataSize(sub_0)\n  dup1\n  dataOffset(sub_0)\n  0x00\n  codecopy\n  0x00\n  return\nstop\n\nsub_0: assembly {\n        /* \"RegisterAccess.sol\":71:1338  contract RegisterAccess {... */\n      mstore(0x40, 0x80)\n      callvalue\n      dup1\n      iszero\n      tag_1\n      jumpi\n      0x00\n      dup1\n      revert\n    tag_1:\n      pop\n      jumpi(tag_2, lt(calldatasize, 0x04))\n      shr(0xe0, calldataload(0x00))\n      dup1\n      0x8da5cb5b\n      gt\n      tag_11\n      jumpi\n      dup1\n      0x8da5cb5b\n      eq\n      tag_7\n      jumpi\n      dup1\n      0xb6820002\n      eq\n      tag_8\n      jumpi\n      dup1\n      0xca6d56dc\n      eq\n      tag_9\n      jumpi\n      dup1\n      0xd03d5849\n      eq\n      tag_10\n      jumpi\n      jump(tag_2)\n    tag_11:\n      dup1\n      0x0bf803e4\n      eq\n      tag_3\n      jumpi\n      dup1\n      0x1a3cd59a\n      eq\n      tag_4\n      jumpi\n      dup1\n      0x1f81595d\n      eq\n      tag_5\n      jumpi\n      dup1\n      0x372c12b1\n      eq\n      tag_6\n      jumpi\n    tag_2:\n      0x00\n      dup1\n      revert\n        /* \"RegisterAccess.sol\":865:1014  function addInfo(string memory _info) public onlyWhitelist returns (uint index) {... */\n    tag_3:\n      tag_12\n      0x04\n      dup1\n      calldatasize\n      sub\n      dup2\n      add\n      swap1\n      tag_13\n      swap2\n      swap1\n      tag_14\n      jump\t// in\n    tag_13:\n      tag_15\n      jump\t// in\n    tag_12:\n      mload(0x40)\n      tag_16\n      swap2\n      swap1\n      tag_17\n      jump\t// in\n    tag_16:\n      mload(0x40)\n      dup1\n      swap2\n      sub\n      swap1\n      return\n        /* \"RegisterAccess.sol\":587:689  function getInfo(uint index) public view returns (string memory) {... */\n    tag_4:\n      tag_18\n      0x04\n      dup1\n      calldatasize\n      sub\n      dup2\n      add\n      swap1\n      tag_19\n      swap2\n      swap1\n      tag_20\n      jump\t// in\n    tag_19:\n      tag_21\n      jump\t// in\n    tag_18:\n      mload(0x40)\n      tag_22\n      swap2\n      swap1\n      tag_23\n      jump\t// in\n    tag_22:\n      mload(0x40)\n      dup1\n      swap2\n      sub\n      swap1\n      return\n        /* \"RegisterAccess.sol\":1233:1332  function delMember (address _member) public onlyOwner {... */\n    tag_5:\n      tag_24\n      0x04\n      dup1\n      calldatasize\n      sub\n      dup2\n      add\n      swap1\n      tag_25\n      swap2\n      swap1\n      tag_26\n      jump\t// in\n    tag_25:\n      tag_27\n      jump\t// in\n    tag_24:\n      stop\n        /* \"RegisterAccess.sol\":157:199  mapping (address => bool) public whiteList */\n    tag_6:\n      tag_28\n      0x04\n      dup1\n      calldatasize\n      sub\n      dup2\n      add\n      swap1\n      tag_29\n      swap2\n      swap1\n      tag_26\n      jump\t// in\n    tag_29:\n      tag_30\n      jump\t// in\n    tag_28:\n      mload(0x40)\n      tag_31\n      swap2\n      swap1\n      tag_32\n      jump\t// in\n    tag_31:\n      mload(0x40)\n      dup1\n      swap2\n      sub\n      swap1\n      return\n        /* \"RegisterAccess.sol\":130:150  address public owner */\n    tag_7:\n      tag_33\n      tag_34\n      jump\t// in\n    tag_33:\n      mload(0x40)\n      tag_35\n      swap2\n      swap1\n      tag_36\n      jump\t// in\n    tag_35:\n      mload(0x40)\n      dup1\n      swap2\n      sub\n      swap1\n      return\n        /* \"RegisterAccess.sol\":698:854  function setInfo(uint index, string memory _info) public onlyWhitelist {... */\n    tag_8:\n      tag_37\n      0x04\n      dup1\n      calldatasize\n      sub\n      dup2\n      add\n      swap1\n      tag_38\n      swap2\n      swap1\n      tag_39\n      jump\t// in\n    tag_38:\n      tag_40\n      jump\t// in\n    tag_37:\n      stop\n        /* \"RegisterAccess.sol\":1124:1222  function addMember (address _member) public onlyOwner {... */\n    tag_9:\n      tag_41\n      0x04\n      dup1\n      calldatasize\n      sub\n      dup2\n      add\n      swap1\n      tag_42\n      swap2\n      swap1\n      tag_26\n      jump\t// in\n    tag_42:\n      tag_43\n      jump\t// in\n    tag_41:\n      stop\n        /* \"RegisterAccess.sol\":1027:1115  function listInfo() public view returns (string[] memory) {... */\n    tag_10:\n      tag_44\n      tag_45\n      jump\t// in\n    tag_44:\n      mload(0x40)\n      tag_46\n      swap2\n      swap1\n      tag_47\n      jump\t// in\n    tag_46:\n      mload(0x40)\n      dup1\n      swap2\n      sub\n      swap1\n      return\n        /* \"RegisterAccess.sol\":865:1014  function addInfo(string memory _info) public onlyWhitelist returns (uint index) {... */\n    tag_15:\n        /* \"RegisterAccess.sol\":933:943  uint index */\n      0x00\n        /* \"RegisterAccess.sol\":535:539  true */\n      0x01\n        /* \"RegisterAccess.sol\":510:539  whiteList[msg.sender] == true */\n      iszero\n      iszero\n        /* \"RegisterAccess.sol\":510:519  whiteList */\n      0x02\n        /* \"RegisterAccess.sol\":510:531  whiteList[msg.sender] */\n      0x00\n        /* \"RegisterAccess.sol\":520:530  msg.sender */\n      caller\n        /* \"RegisterAccess.sol\":510:531  whiteList[msg.sender] */\n      0xffffffffffffffffffffffffffffffffffffffff\n      and\n      0xffffffffffffffffffffffffffffffffffffffff\n      and\n      dup2\n      mstore\n      0x20\n      add\n      swap1\n      dup2\n      mstore\n      0x20\n      add\n      0x00\n      keccak256\n      0x00\n      swap1\n      sload\n      swap1\n      0x0100\n      exp\n      swap1\n      div\n      0xff\n      and\n        /* \"RegisterAccess.sol\":510:539  whiteList[msg.sender] == true */\n      iszero\n      iszero\n      eq\n        /* \"RegisterAccess.sol\":502:558  require(whiteList[msg.sender] == true, \"Only whitelist\") */\n      tag_49\n      jumpi\n      mload(0x40)\n      0x08c379a000000000000000000000000000000000000000000000000000000000\n      dup2\n      mstore\n      0x04\n      add\n      tag_50\n      swap1\n      tag_51\n      jump\t// in\n    tag_50:\n      mload(0x40)\n      dup1\n      swap2\n      sub\n      swap1\n      revert\n    tag_49:\n        /* \"RegisterAccess.sol\":956:960  info */\n      0x00\n        /* \"RegisterAccess.sol\":967:972  _info */\n      dup3\n        /* \"RegisterAccess.sol\":956:973  info.push (_info) */\n      swap1\n      dup1\n      0x01\n      dup2\n      sload\n      add\n      dup1\n      dup3\n      sstore\n      dup1\n      swap2\n      pop\n      pop\n      0x01\n      swap1\n      sub\n      swap1\n      0x00\n      mstore\n      keccak256(0x00, 0x20)\n      add\n      0x00\n      swap1\n      swap2\n      swap1\n      swap2\n      swap1\n      swap2\n      pop\n      swap1\n      dup1\n      mload\n      swap1\n      0x20\n      add\n      swap1\n      tag_54\n      swap3\n      swap2\n      swap1\n      tag_55\n      jump\t// in\n    tag_54:\n      pop\n        /* \"RegisterAccess.sol\":1005:1006  1 */\n      0x01\n        /* \"RegisterAccess.sol\":992:996  info */\n      0x00\n        /* \"RegisterAccess.sol\":992:1003  info.length */\n      dup1\n      sload\n      swap1\n      pop\n        /* \"RegisterAccess.sol\":992:1006  info.length -1 */\n      tag_56\n      swap2\n      swap1\n      tag_57\n      jump\t// in\n    tag_56:\n        /* \"RegisterAccess.sol\":984:1006  index = info.length -1 */\n      swap1\n      pop\n        /* \"RegisterAccess.sol\":865:1014  function addInfo(string memory _info) public onlyWhitelist returns (uint index) {... */\n      swap2\n      swap1\n      pop\n      jump\t// out\n        /* \"RegisterAccess.sol\":587:689  function getInfo(uint index) public view returns (string memory) {... */\n    tag_21:\n        /* \"RegisterAccess.sol\":637:650  string memory */\n      0x60\n        /* \"RegisterAccess.sol\":670:674  info */\n      0x00\n        /* \"RegisterAccess.sol\":675:680  index */\n      dup3\n        /* \"RegisterAccess.sol\":670:681  info[index] */\n      dup2\n      sload\n      dup2\n      lt\n      tag_59\n      jumpi\n      tag_60\n      tag_61\n      jump\t// in\n    tag_60:\n    tag_59:\n      swap1\n      0x00\n      mstore\n      keccak256(0x00, 0x20)\n      add\n        /* \"RegisterAccess.sol\":663:681  return info[index] */\n      dup1\n      sload\n      tag_63\n      swap1\n      tag_64\n      jump\t// in\n    tag_63:\n      dup1\n      0x1f\n      add\n      0x20\n      dup1\n      swap2\n      div\n      mul\n      0x20\n      add\n      mload(0x40)\n      swap1\n      dup2\n      add\n      0x40\n      mstore\n      dup1\n      swap3\n      swap2\n      swap1\n      dup2\n      dup2\n      mstore\n      0x20\n      add\n      dup3\n      dup1\n      sload\n      tag_65\n      swap1\n      tag_64\n      jump\t// in\n    tag_65:\n      dup1\n      iszero\n      tag_66\n      jumpi\n      dup1\n      0x1f\n      lt\n      tag_67\n      jumpi\n      0x0100\n      dup1\n      dup4\n      sload\n      div\n      mul\n      dup4\n      mstore\n      swap2\n      0x20\n      add\n      swap2\n      jump(tag_66)\n    tag_67:\n      dup3\n      add\n      swap2\n      swap1\n      0x00\n      mstore\n      keccak256(0x00, 0x20)\n      swap1\n    tag_68:\n      dup2\n      sload\n      dup2\n      mstore\n      swap1\n      0x01\n      add\n      swap1\n      0x20\n      add\n      dup1\n      dup4\n      gt\n      tag_68\n      jumpi\n      dup3\n      swap1\n      sub\n      0x1f\n      and\n      dup3\n      add\n      swap2\n    tag_66:\n      pop\n      pop\n      pop\n      pop\n      pop\n      swap1\n      pop\n        /* \"RegisterAccess.sol\":587:689  function getInfo(uint index) public view returns (string memory) {... */\n      swap2\n      swap1\n      pop\n      jump\t// out\n        /* \"RegisterAccess.sol\":1233:1332  function delMember (address _member) public onlyOwner {... */\n    tag_27:\n        /* \"RegisterAccess.sol\":420:425  owner */\n      0x01\n      0x00\n      swap1\n      sload\n      swap1\n      0x0100\n      exp\n      swap1\n      div\n      0xffffffffffffffffffffffffffffffffffffffff\n      and\n        /* \"RegisterAccess.sol\":406:425  msg.sender == owner */\n      0xffffffffffffffffffffffffffffffffffffffff\n      and\n        /* \"RegisterAccess.sol\":406:416  msg.sender */\n      caller\n        /* \"RegisterAccess.sol\":406:425  msg.sender == owner */\n      0xffffffffffffffffffffffffffffffffffffffff\n      and\n      eq\n        /* \"RegisterAccess.sol\":398:439  require(msg.sender == owner,\"Only owner\") */\n      tag_70\n      jumpi\n      mload(0x40)\n      0x08c379a000000000000000000000000000000000000000000000000000000000\n      dup2\n      mstore\n      0x04\n      add\n      tag_71\n      swap1\n      tag_72\n      jump\t// in\n    tag_71:\n      mload(0x40)\n      dup1\n      swap2\n      sub\n      swap1\n      revert\n    tag_70:\n        /* \"RegisterAccess.sol\":1319:1324  false */\n      0x00\n        /* \"RegisterAccess.sol\":1298:1307  whiteList */\n      0x02\n        /* \"RegisterAccess.sol\":1298:1316  whiteList[_member] */\n      0x00\n        /* \"RegisterAccess.sol\":1308:1315  _member */\n      dup4\n        /* \"RegisterAccess.sol\":1298:1316  whiteList[_member] */\n      0xffffffffffffffffffffffffffffffffffffffff\n      and\n      0xffffffffffffffffffffffffffffffffffffffff\n      and\n      dup2\n      mstore\n      0x20\n      add\n      swap1\n      dup2\n      mstore\n      0x20\n      add\n      0x00\n      keccak256\n      0x00\n        /* \"RegisterAccess.sol\":1298:1324  whiteList[_member] = false */\n      0x0100\n      exp\n      dup2\n      sload\n      dup2\n      0xff\n      mul\n      not\n      and\n      swap1\n      dup4\n      iszero\n      iszero\n      mul\n      or\n      swap1\n      sstore\n      pop\n        /* \"RegisterAccess.sol\":1233:1332  function delMember (address _member) public onlyOwner {... */\n      pop\n      jump\t// out\n        /* \"RegisterAccess.sol\":157:199  mapping (address => bool) public whiteList */\n    tag_30:\n      mstore(0x20, 0x02)\n      dup1\n      0x00\n      mstore\n      keccak256(0x00, 0x40)\n      0x00\n      swap2\n      pop\n      sload\n      swap1\n      0x0100\n      exp\n      swap1\n      div\n      0xff\n      and\n      dup2\n      jump\t// out\n        /* \"RegisterAccess.sol\":130:150  address public owner */\n    tag_34:\n      0x01\n      0x00\n      swap1\n      sload\n      swap1\n      0x0100\n      exp\n      swap1\n      div\n      0xffffffffffffffffffffffffffffffffffffffff\n      and\n      dup2\n      jump\t// out\n        /* \"RegisterAccess.sol\":698:854  function setInfo(uint index, string memory _info) public onlyWhitelist {... */\n    tag_40:\n        /* \"RegisterAccess.sol\":535:539  true */\n      0x01\n        /* \"RegisterAccess.sol\":510:539  whiteList[msg.sender] == true */\n      iszero\n      iszero\n        /* \"RegisterAccess.sol\":510:519  whiteList */\n      0x02\n        /* \"RegisterAccess.sol\":510:531  whiteList[msg.sender] */\n      0x00\n        /* \"RegisterAccess.sol\":520:530  msg.sender */\n      caller\n        /* \"RegisterAccess.sol\":510:531  whiteList[msg.sender] */\n      0xffffffffffffffffffffffffffffffffffffffff\n      and\n      0xffffffffffffffffffffffffffffffffffffffff\n      and\n      dup2\n      mstore\n      0x20\n      add\n      swap1\n      dup2\n      mstore\n      0x20\n      add\n      0x00\n      keccak256\n      0x00\n      swap1\n      sload\n      swap1\n      0x0100\n      exp\n      swap1\n      div\n      0xff\n      and\n        /* \"RegisterAccess.sol\":510:539  whiteList[msg.sender] == true */\n      iszero\n      iszero\n      eq\n        /* \"RegisterAccess.sol\":502:558  require(whiteList[msg.sender] == true, \"Only whitelist\") */\n      tag_75\n      jumpi\n      mload(0x40)\n      0x08c379a000000000000000000000000000000000000000000000000000000000\n      dup2\n      mstore\n      0x04\n      add\n      tag_76\n      swap1\n      tag_51\n      jump\t// in\n    tag_76:\n      mload(0x40)\n      dup1\n      swap2\n      sub\n      swap1\n      revert\n    tag_75:\n        /* \"RegisterAccess.sol\":785:816  InfoChange (info[index], _info) */\n      0x305058d54db6daf26994cd687b168a24cdd9a7201462f1659782c4e429987992\n        /* \"RegisterAccess.sol\":797:801  info */\n      0x00\n        /* \"RegisterAccess.sol\":802:807  index */\n      dup4\n        /* \"RegisterAccess.sol\":797:808  info[index] */\n      dup2\n      sload\n      dup2\n      lt\n      tag_78\n      jumpi\n      tag_79\n      tag_61\n      jump\t// in\n    tag_79:\n    tag_78:\n      swap1\n      0x00\n      mstore\n      keccak256(0x00, 0x20)\n      add\n        /* \"RegisterAccess.sol\":810:815  _info */\n      dup3\n        /* \"RegisterAccess.sol\":785:816  InfoChange (info[index], _info) */\n      mload(0x40)\n      tag_81\n      swap3\n      swap2\n      swap1\n      tag_82\n      jump\t// in\n    tag_81:\n      mload(0x40)\n      dup1\n      swap2\n      sub\n      swap1\n      log1\n        /* \"RegisterAccess.sol\":841:846  _info */\n      dup1\n        /* \"RegisterAccess.sol\":827:831  info */\n      0x00\n        /* \"RegisterAccess.sol\":832:837  index */\n      dup4\n        /* \"RegisterAccess.sol\":827:838  info[index] */\n      dup2\n      sload\n      dup2\n      lt\n      tag_83\n      jumpi\n      tag_84\n      tag_61\n      jump\t// in\n    tag_84:\n    tag_83:\n      swap1\n      0x00\n      mstore\n      keccak256(0x00, 0x20)\n      add\n        /* \"RegisterAccess.sol\":827:846  info[index] = _info */\n      swap1\n      dup1\n      mload\n      swap1\n      0x20\n      add\n      swap1\n      tag_86\n      swap3\n      swap2\n      swap1\n      tag_55\n      jump\t// in\n    tag_86:\n      pop\n        /* \"RegisterAccess.sol\":698:854  function setInfo(uint index, string memory _info) public onlyWhitelist {... */\n      pop\n      pop\n      jump\t// out\n        /* \"RegisterAccess.sol\":1124:1222  function addMember (address _member) public onlyOwner {... */\n    tag_43:\n        /* \"RegisterAccess.sol\":420:425  owner */\n      0x01\n      0x00\n      swap1\n      sload\n      swap1\n      0x0100\n      exp\n      swap1\n      div\n      0xffffffffffffffffffffffffffffffffffffffff\n      and\n        /* \"RegisterAccess.sol\":406:425  msg.sender == owner */\n      0xffffffffffffffffffffffffffffffffffffffff\n      and\n        /* \"RegisterAccess.sol\":406:416  msg.sender */\n      caller\n        /* \"RegisterAccess.sol\":406:425  msg.sender == owner */\n      0xffffffffffffffffffffffffffffffffffffffff\n      and\n      eq\n        /* \"RegisterAccess.sol\":398:439  require(msg.sender == owner,\"Only owner\") */\n      tag_88\n      jumpi\n      mload(0x40)\n      0x08c379a000000000000000000000000000000000000000000000000000000000\n      dup2\n      mstore\n      0x04\n      add\n      tag_89\n      swap1\n      tag_72\n      jump\t// in\n    tag_89:\n      mload(0x40)\n      dup1\n      swap2\n      sub\n      swap1\n      revert\n    tag_88:\n        /* \"RegisterAccess.sol\":1210:1214  true */\n      0x01\n        /* \"RegisterAccess.sol\":1189:1198  whiteList */\n      0x02\n        /* \"RegisterAccess.sol\":1189:1207  whiteList[_member] */\n      0x00\n        /* \"RegisterAccess.sol\":1199:1206  _member */\n      dup4\n        /* \"RegisterAccess.sol\":1189:1207  whiteList[_member] */\n      0xffffffffffffffffffffffffffffffffffffffff\n      and\n      0xffffffffffffffffffffffffffffffffffffffff\n      and\n      dup2\n      mstore\n      0x20\n      add\n      swap1\n      dup2\n      mstore\n      0x20\n      add\n      0x00\n      keccak256\n      0x00\n        /* \"RegisterAccess.sol\":1189:1214  whiteList[_member] = true */\n      0x0100\n      exp\n      dup2\n      sload\n      dup2\n      0xff\n      mul\n      not\n      and\n      swap1\n      dup4\n      iszero\n      iszero\n      mul\n      or\n      swap1\n      sstore\n      pop\n        /* \"RegisterAccess.sol\":1124:1222  function addMember (address _member) public onlyOwner {... */\n      pop\n      jump\t// out\n        /* \"RegisterAccess.sol\":1027:1115  function listInfo() public view returns (string[] memory) {... */\n    tag_45:\n        /* \"RegisterAccess.sol\":1068:1083  string[] memory */\n      0x60\n        /* \"RegisterAccess.sol\":1103:1107  info */\n      0x00\n        /* \"RegisterAccess.sol\":1096:1107  return info */\n      dup1\n      sload\n      dup1\n      0x20\n      mul\n      0x20\n      add\n      mload(0x40)\n      swap1\n      dup2\n      add\n      0x40\n      mstore\n      dup1\n      swap3\n      swap2\n      swap1\n      dup2\n      dup2\n      mstore\n      0x20\n      add\n      0x00\n      swap1\n    tag_92:\n      dup3\n      dup3\n      lt\n      iszero\n      tag_93\n      jumpi\n      dup4\n      dup3\n      swap1\n      0x00\n      mstore\n      keccak256(0x00, 0x20)\n      add\n      dup1\n      sload\n      tag_95\n      swap1\n      tag_64\n      jump\t// in\n    tag_95:\n      dup1\n      0x1f\n      add\n      0x20\n      dup1\n      swap2\n      div\n      mul\n      0x20\n      add\n      mload(0x40)\n      swap1\n      dup2\n      add\n      0x40\n      mstore\n      dup1\n      swap3\n      swap2\n      swap1\n      dup2\n      dup2\n      mstore\n      0x20\n      add\n      dup3\n      dup1\n      sload\n      tag_96\n      swap1\n      tag_64\n      jump\t// in\n    tag_96:\n      dup1\n      iszero\n      tag_97\n      jumpi\n      dup1\n      0x1f\n      lt\n      tag_98\n      jumpi\n      0x0100\n      dup1\n      dup4\n      sload\n      div\n      mul\n      dup4\n      mstore\n      swap2\n      0x20\n      add\n      swap2\n      jump(tag_97)\n    tag_98:\n      dup3\n      add\n      swap2\n      swap1\n      0x00\n      mstore\n      keccak256(0x00, 0x20)\n      swap1\n    tag_99:\n      dup2\n      sload\n      dup2\n      mstore\n      swap1\n      0x01\n      add\n      swap1\n      0x20\n      add\n      dup1\n      dup4\n      gt\n      tag_99\n      jumpi\n      dup3\n      swap1\n      sub\n      0x1f\n      and\n      dup3\n      add\n      swap2\n    tag_97:\n      pop\n      pop\n      pop\n      pop\n      pop\n      dup2\n      mstore\n      0x20\n      add\n      swap1\n      0x01\n      add\n      swap1\n      jump(tag_92)\n    tag_93:\n      pop\n      pop\n      pop\n      pop\n      swap1\n      pop\n        /* \"RegisterAccess.sol\":1027:1115  function listInfo() public view returns (string[] memory) {... */\n      swap1\n      jump\t// out\n    tag_55:\n      dup3\n      dup1\n      sload\n      tag_100\n      swap1\n      tag_64\n      jump\t// in\n    tag_100:\n      swap1\n      0x00\n      mstore\n      keccak256(0x00, 0x20)\n      swap1\n      0x1f\n      add\n      0x20\n      swap1\n      div\n      dup2\n      add\n      swap3\n      dup3\n      tag_102\n      jumpi\n      0x00\n      dup6\n      sstore\n      jump(tag_101)\n    tag_102:\n      dup3\n      0x1f\n      lt\n      tag_103\n      jumpi\n      dup1\n      mload\n      not(0xff)\n      and\n      dup4\n      dup1\n      add\n      or\n      dup6\n      sstore\n      jump(tag_101)\n    tag_103:\n      dup3\n      dup1\n      add\n      0x01\n      add\n      dup6\n      sstore\n      dup3\n      iszero\n      tag_101\n      jumpi\n      swap2\n      dup3\n      add\n    tag_104:\n      dup3\n      dup2\n      gt\n      iszero\n      tag_105\n      jumpi\n      dup3\n      mload\n      dup3\n      sstore\n      swap2\n      0x20\n      add\n      swap2\n      swap1\n      0x01\n      add\n      swap1\n      jump(tag_104)\n    tag_105:\n    tag_101:\n      pop\n      swap1\n      pop\n      tag_106\n      swap2\n      swap1\n      tag_107\n      jump\t// in\n    tag_106:\n      pop\n      swap1\n      jump\t// out\n    tag_107:\n    tag_108:\n      dup1\n      dup3\n      gt\n      iszero\n      tag_109\n      jumpi\n      0x00\n      dup2\n      0x00\n      swap1\n      sstore\n      pop\n      0x01\n      add\n      jump(tag_108)\n    tag_109:\n      pop\n      swap1\n      jump\t// out\n        /* \"#utility.yul\":7:82   */\n    tag_110:\n        /* \"#utility.yul\":40:46   */\n      0x00\n        /* \"#utility.yul\":73:75   */\n      0x40\n        /* \"#utility.yul\":67:76   */\n      mload\n        /* \"#utility.yul\":57:76   */\n      swap1\n      pop\n        /* \"#utility.yul\":7:82   */\n      swap1\n      jump\t// out\n        /* \"#utility.yul\":88:205   */\n    tag_111:\n        /* \"#utility.yul\":197:198   */\n      0x00\n        /* \"#utility.yul\":194:195   */\n      dup1\n        /* \"#utility.yul\":187:199   */\n      revert\n        /* \"#utility.yul\":211:328   */\n    tag_112:\n        /* \"#utility.yul\":320:321   */\n      0x00\n        /* \"#utility.yul\":317:318   */\n      dup1\n        /* \"#utility.yul\":310:322   */\n      revert\n        /* \"#utility.yul\":334:451   */\n    tag_113:\n        /* \"#utility.yul\":443:444   */\n      0x00\n        /* \"#utility.yul\":440:441   */\n      dup1\n        /* \"#utility.yul\":433:445   */\n      revert\n        /* \"#utility.yul\":457:574   */\n    tag_114:\n        /* \"#utility.yul\":566:567   */\n      0x00\n        /* \"#utility.yul\":563:564   */\n      dup1\n        /* \"#utility.yul\":556:568   */\n      revert\n        /* \"#utility.yul\":580:682   */\n    tag_115:\n        /* \"#utility.yul\":621:627   */\n      0x00\n        /* \"#utility.yul\":672:674   */\n      0x1f\n        /* \"#utility.yul\":668:675   */\n      not\n        /* \"#utility.yul\":663:665   */\n      0x1f\n        /* \"#utility.yul\":656:661   */\n      dup4\n        /* \"#utility.yul\":652:666   */\n      add\n        /* \"#utility.yul\":648:676   */\n      and\n        /* \"#utility.yul\":638:676   */\n      swap1\n      pop\n        /* \"#utility.yul\":580:682   */\n      swap2\n      swap1\n      pop\n      jump\t// out\n        /* \"#utility.yul\":688:868   */\n    tag_116:\n        /* \"#utility.yul\":736:813   */\n      0x4e487b7100000000000000000000000000000000000000000000000000000000\n        /* \"#utility.yul\":733:734   */\n      0x00\n        /* \"#utility.yul\":726:814   */\n      mstore\n        /* \"#utility.yul\":833:837   */\n      0x41\n        /* \"#utility.yul\":830:831   */\n      0x04\n        /* \"#utility.yul\":823:838   */\n      mstore\n        /* \"#utility.yul\":857:861   */\n      0x24\n        /* \"#utility.yul\":854:855   */\n      0x00\n        /* \"#utility.yul\":847:862   */\n      revert\n        /* \"#utility.yul\":874:1155   */\n    tag_117:\n        /* \"#utility.yul\":957:984   */\n      tag_163\n        /* \"#utility.yul\":979:983   */\n      dup3\n        /* \"#utility.yul\":957:984   */\n      tag_115\n      jump\t// in\n    tag_163:\n        /* \"#utility.yul\":949:955   */\n      dup2\n        /* \"#utility.yul\":945:985   */\n      add\n        /* \"#utility.yul\":1087:1093   */\n      dup2\n        /* \"#utility.yul\":1075:1085   */\n      dup2\n        /* \"#utility.yul\":1072:1094   */\n      lt\n        /* \"#utility.yul\":1051:1069   */\n      0xffffffffffffffff\n        /* \"#utility.yul\":1039:1049   */\n      dup3\n        /* \"#utility.yul\":1036:1070   */\n      gt\n        /* \"#utility.yul\":1033:1095   */\n      or\n        /* \"#utility.yul\":1030:1118   */\n      iszero\n      tag_164\n      jumpi\n        /* \"#utility.yul\":1098:1116   */\n      tag_165\n      tag_116\n      jump\t// in\n    tag_165:\n        /* \"#utility.yul\":1030:1118   */\n    tag_164:\n        /* \"#utility.yul\":1138:1148   */\n      dup1\n        /* \"#utility.yul\":1134:1136   */\n      0x40\n        /* \"#utility.yul\":1127:1149   */\n      mstore\n        /* \"#utility.yul\":917:1155   */\n      pop\n        /* \"#utility.yul\":874:1155   */\n      pop\n      pop\n      jump\t// out\n        /* \"#utility.yul\":1161:1290   */\n    tag_118:\n        /* \"#utility.yul\":1195:1201   */\n      0x00\n        /* \"#utility.yul\":1222:1242   */\n      tag_167\n      tag_110\n      jump\t// in\n    tag_167:\n        /* \"#utility.yul\":1212:1242   */\n      swap1\n      pop\n        /* \"#utility.yul\":1251:1284   */\n      tag_168\n        /* \"#utility.yul\":1279:1283   */\n      dup3\n        /* \"#utility.yul\":1271:1277   */\n      dup3\n        /* \"#utility.yul\":1251:1284   */\n      tag_117\n      jump\t// in\n    tag_168:\n        /* \"#utility.yul\":1161:1290   */\n      swap2\n      swap1\n      pop\n      jump\t// out\n        /* \"#utility.yul\":1296:1604   */\n    tag_119:\n        /* \"#utility.yul\":1358:1362   */\n      0x00\n        /* \"#utility.yul\":1448:1466   */\n      0xffffffffffffffff\n        /* \"#utility.yul\":1440:1446   */\n      dup3\n        /* \"#utility.yul\":1437:1467   */\n      gt\n        /* \"#utility.yul\":1434:1490   */\n      iszero\n      tag_170\n      jumpi\n        /* \"#utility.yul\":1470:1488   */\n      tag_171\n      tag_116\n      jump\t// in\n    tag_171:\n        /* \"#utility.yul\":1434:1490   */\n    tag_170:\n        /* \"#utility.yul\":1508:1537   */\n      tag_172\n        /* \"#utility.yul\":1530:1536   */\n      dup3\n        /* \"#utility.yul\":1508:1537   */\n      tag_115\n      jump\t// in\n    tag_172:\n        /* \"#utility.yul\":1500:1537   */\n      swap1\n      pop\n        /* \"#utility.yul\":1592:1596   */\n      0x20\n        /* \"#utility.yul\":1586:1590   */\n      dup2\n        /* \"#utility.yul\":1582:1597   */\n      add\n        /* \"#utility.yul\":1574:1597   */\n      swap1\n      pop\n        /* \"#utility.yul\":1296:1604   */\n      swap2\n      swap1\n      pop\n      jump\t// out\n        /* \"#utility.yul\":1610:1764   */\n    tag_120:\n        /* \"#utility.yul\":1694:1700   */\n      dup3\n        /* \"#utility.yul\":1689:1692   */\n      dup2\n        /* \"#utility.yul\":1684:1687   */\n      dup4\n        /* \"#utility.yul\":1671:1701   */\n      calldatacopy\n        /* \"#utility.yul\":1756:1757   */\n      0x00\n        /* \"#utility.yul\":1747:1753   */\n      dup4\n        /* \"#utility.yul\":1742:1745   */\n      dup4\n        /* \"#utility.yul\":1738:1754   */\n      add\n        /* \"#utility.yul\":1731:1758   */\n      mstore\n        /* \"#utility.yul\":1610:1764   */\n      pop\n      pop\n      pop\n      jump\t// out\n        /* \"#utility.yul\":1770:2182   */\n    tag_121:\n        /* \"#utility.yul\":1848:1853   */\n      0x00\n        /* \"#utility.yul\":1873:1939   */\n      tag_175\n        /* \"#utility.yul\":1889:1938   */\n      tag_176\n        /* \"#utility.yul\":1931:1937   */\n      dup5\n        /* \"#utility.yul\":1889:1938   */\n      tag_119\n      jump\t// in\n    tag_176:\n        /* \"#utility.yul\":1873:1939   */\n      tag_118\n      jump\t// in\n    tag_175:\n        /* \"#utility.yul\":1864:1939   */\n      swap1\n      pop\n        /* \"#utility.yul\":1962:1968   */\n      dup3\n        /* \"#utility.yul\":1955:1960   */\n      dup2\n        /* \"#utility.yul\":1948:1969   */\n      mstore\n        /* \"#utility.yul\":2000:2004   */\n      0x20\n        /* \"#utility.yul\":1993:1998   */\n      dup2\n        /* \"#utility.yul\":1989:2005   */\n      add\n        /* \"#utility.yul\":2038:2041   */\n      dup5\n        /* \"#utility.yul\":2029:2035   */\n      dup5\n        /* \"#utility.yul\":2024:2027   */\n      dup5\n        /* \"#utility.yul\":2020:2036   */\n      add\n        /* \"#utility.yul\":2017:2042   */\n      gt\n        /* \"#utility.yul\":2014:2126   */\n      iszero\n      tag_177\n      jumpi\n        /* \"#utility.yul\":2045:2124   */\n      tag_178\n      tag_114\n      jump\t// in\n    tag_178:\n        /* \"#utility.yul\":2014:2126   */\n    tag_177:\n        /* \"#utility.yul\":2135:2176   */\n      tag_179\n        /* \"#utility.yul\":2169:2175   */\n      dup5\n        /* \"#utility.yul\":2164:2167   */\n      dup3\n        /* \"#utility.yul\":2159:2162   */\n      dup6\n        /* \"#utility.yul\":2135:2176   */\n      tag_120\n      jump\t// in\n    tag_179:\n        /* \"#utility.yul\":1854:2182   */\n      pop\n        /* \"#utility.yul\":1770:2182   */\n      swap4\n      swap3\n      pop\n      pop\n      pop\n      jump\t// out\n        /* \"#utility.yul\":2202:2542   */\n    tag_122:\n        /* \"#utility.yul\":2258:2263   */\n      0x00\n        /* \"#utility.yul\":2307:2310   */\n      dup3\n        /* \"#utility.yul\":2300:2304   */\n      0x1f\n        /* \"#utility.yul\":2292:2298   */\n      dup4\n        /* \"#utility.yul\":2288:2305   */\n      add\n        /* \"#utility.yul\":2284:2311   */\n      slt\n        /* \"#utility.yul\":2274:2396   */\n      tag_181\n      jumpi\n        /* \"#utility.yul\":2315:2394   */\n      tag_182\n      tag_113\n      jump\t// in\n    tag_182:\n        /* \"#utility.yul\":2274:2396   */\n    tag_181:\n        /* \"#utility.yul\":2432:2438   */\n      dup2\n        /* \"#utility.yul\":2419:2439   */\n      calldataload\n        /* \"#utility.yul\":2457:2536   */\n      tag_183\n        /* \"#utility.yul\":2532:2535   */\n      dup5\n        /* \"#utility.yul\":2524:2530   */\n      dup3\n        /* \"#utility.yul\":2517:2521   */\n      0x20\n        /* \"#utility.yul\":2509:2515   */\n      dup7\n        /* \"#utility.yul\":2505:2522   */\n      add\n        /* \"#utility.yul\":2457:2536   */\n      tag_121\n      jump\t// in\n    tag_183:\n        /* \"#utility.yul\":2448:2536   */\n      swap2\n      pop\n        /* \"#utility.yul\":2264:2542   */\n      pop\n        /* \"#utility.yul\":2202:2542   */\n      swap3\n      swap2\n      pop\n      pop\n      jump\t// out\n        /* \"#utility.yul\":2548:3057   */\n    tag_14:\n        /* \"#utility.yul\":2617:2623   */\n      0x00\n        /* \"#utility.yul\":2666:2668   */\n      0x20\n        /* \"#utility.yul\":2654:2663   */\n      dup3\n        /* \"#utility.yul\":2645:2652   */\n      dup5\n        /* \"#utility.yul\":2641:2664   */\n      sub\n        /* \"#utility.yul\":2637:2669   */\n      slt\n        /* \"#utility.yul\":2634:2753   */\n      iszero\n      tag_185\n      jumpi\n        /* \"#utility.yul\":2672:2751   */\n      tag_186\n      tag_111\n      jump\t// in\n    tag_186:\n        /* \"#utility.yul\":2634:2753   */\n    tag_185:\n        /* \"#utility.yul\":2820:2821   */\n      0x00\n        /* \"#utility.yul\":2809:2818   */\n      dup3\n        /* \"#utility.yul\":2805:2822   */\n      add\n        /* \"#utility.yul\":2792:2823   */\n      calldataload\n        /* \"#utility.yul\":2850:2868   */\n      0xffffffffffffffff\n        /* \"#utility.yul\":2842:2848   */\n      dup2\n        /* \"#utility.yul\":2839:2869   */\n      gt\n        /* \"#utility.yul\":2836:2953   */\n      iszero\n      tag_187\n      jumpi\n        /* \"#utility.yul\":2872:2951   */\n      tag_188\n      tag_112\n      jump\t// in\n    tag_188:\n        /* \"#utility.yul\":2836:2953   */\n    tag_187:\n        /* \"#utility.yul\":2977:3040   */\n      tag_189\n        /* \"#utility.yul\":3032:3039   */\n      dup5\n        /* \"#utility.yul\":3023:3029   */\n      dup3\n        /* \"#utility.yul\":3012:3021   */\n      dup6\n        /* \"#utility.yul\":3008:3030   */\n      add\n        /* \"#utility.yul\":2977:3040   */\n      tag_122\n      jump\t// in\n    tag_189:\n        /* \"#utility.yul\":2967:3040   */\n      swap2\n      pop\n        /* \"#utility.yul\":2763:3050   */\n      pop\n        /* \"#utility.yul\":2548:3057   */\n      swap3\n      swap2\n      pop\n      pop\n      jump\t// out\n        /* \"#utility.yul\":3063:3140   */\n    tag_123:\n        /* \"#utility.yul\":3100:3107   */\n      0x00\n        /* \"#utility.yul\":3129:3134   */\n      dup2\n        /* \"#utility.yul\":3118:3134   */\n      swap1\n      pop\n        /* \"#utility.yul\":3063:3140   */\n      swap2\n      swap1\n      pop\n      jump\t// out\n        /* \"#utility.yul\":3146:3264   */\n    tag_124:\n        /* \"#utility.yul\":3233:3257   */\n      tag_192\n        /* \"#utility.yul\":3251:3256   */\n      dup2\n        /* \"#utility.yul\":3233:3257   */\n      tag_123\n      jump\t// in\n    tag_192:\n        /* \"#utility.yul\":3228:3231   */\n      dup3\n        /* \"#utility.yul\":3221:3258   */\n      mstore\n        /* \"#utility.yul\":3146:3264   */\n      pop\n      pop\n      jump\t// out\n        /* \"#utility.yul\":3270:3492   */\n    tag_17:\n        /* \"#utility.yul\":3363:3367   */\n      0x00\n        /* \"#utility.yul\":3401:3403   */\n      0x20\n        /* \"#utility.yul\":3390:3399   */\n      dup3\n        /* \"#utility.yul\":3386:3404   */\n      add\n        /* \"#utility.yul\":3378:3404   */\n      swap1\n      pop\n        /* \"#utility.yul\":3414:3485   */\n      tag_194\n        /* \"#utility.yul\":3482:3483   */\n      0x00\n        /* \"#utility.yul\":3471:3480   */\n      dup4\n        /* \"#utility.yul\":3467:3484   */\n      add\n        /* \"#utility.yul\":3458:3464   */\n      dup5\n        /* \"#utility.yul\":3414:3485   */\n      tag_124\n      jump\t// in\n    tag_194:\n        /* \"#utility.yul\":3270:3492   */\n      swap3\n      swap2\n      pop\n      pop\n      jump\t// out\n        /* \"#utility.yul\":3498:3620   */\n    tag_125:\n        /* \"#utility.yul\":3571:3595   */\n      tag_196\n        /* \"#utility.yul\":3589:3594   */\n      dup2\n        /* \"#utility.yul\":3571:3595   */\n      tag_123\n      jump\t// in\n    tag_196:\n        /* \"#utility.yul\":3564:3569   */\n      dup2\n        /* \"#utility.yul\":3561:3596   */\n      eq\n        /* \"#utility.yul\":3551:3614   */\n      tag_197\n      jumpi\n        /* \"#utility.yul\":3610:3611   */\n      0x00\n        /* \"#utility.yul\":3607:3608   */\n      dup1\n        /* \"#utility.yul\":3600:3612   */\n      revert\n        /* \"#utility.yul\":3551:3614   */\n    tag_197:\n        /* \"#utility.yul\":3498:3620   */\n      pop\n      jump\t// out\n        /* \"#utility.yul\":3626:3765   */\n    tag_126:\n        /* \"#utility.yul\":3672:3677   */\n      0x00\n        /* \"#utility.yul\":3710:3716   */\n      dup2\n        /* \"#utility.yul\":3697:3717   */\n      calldataload\n        /* \"#utility.yul\":3688:3717   */\n      swap1\n      pop\n        /* \"#utility.yul\":3726:3759   */\n      tag_199\n        /* \"#utility.yul\":3753:3758   */\n      dup2\n        /* \"#utility.yul\":3726:3759   */\n      tag_125\n      jump\t// in\n    tag_199:\n        /* \"#utility.yul\":3626:3765   */\n      swap3\n      swap2\n      pop\n      pop\n      jump\t// out\n        /* \"#utility.yul\":3771:4100   */\n    tag_20:\n        /* \"#utility.yul\":3830:3836   */\n      0x00\n        /* \"#utility.yul\":3879:3881   */\n      0x20\n        /* \"#utility.yul\":3867:3876   */\n      dup3\n        /* \"#utility.yul\":3858:3865   */\n      dup5\n        /* \"#utility.yul\":3854:3877   */\n      sub\n        /* \"#utility.yul\":3850:3882   */\n      slt\n        /* \"#utility.yul\":3847:3966   */\n      iszero\n      tag_201\n      jumpi\n        /* \"#utility.yul\":3885:3964   */\n      tag_202\n      tag_111\n      jump\t// in\n    tag_202:\n        /* \"#utility.yul\":3847:3966   */\n    tag_201:\n        /* \"#utility.yul\":4005:4006   */\n      0x00\n        /* \"#utility.yul\":4030:4083   */\n      tag_203\n        /* \"#utility.yul\":4075:4082   */\n      dup5\n        /* \"#utility.yul\":4066:4072   */\n      dup3\n        /* \"#utility.yul\":4055:4064   */\n      dup6\n        /* \"#utility.yul\":4051:4073   */\n      add\n        /* \"#utility.yul\":4030:4083   */\n      tag_126\n      jump\t// in\n    tag_203:\n        /* \"#utility.yul\":4020:4083   */\n      swap2\n      pop\n        /* \"#utility.yul\":3976:4093   */\n      pop\n        /* \"#utility.yul\":3771:4100   */\n      swap3\n      swap2\n      pop\n      pop\n      jump\t// out\n        /* \"#utility.yul\":4106:4205   */\n    tag_127:\n        /* \"#utility.yul\":4158:4164   */\n      0x00\n        /* \"#utility.yul\":4192:4197   */\n      dup2\n        /* \"#utility.yul\":4186:4198   */\n      mload\n        /* \"#utility.yul\":4176:4198   */\n      swap1\n      pop\n        /* \"#utility.yul\":4106:4205   */\n      swap2\n      swap1\n      pop\n      jump\t// out\n        /* \"#utility.yul\":4211:4380   */\n    tag_128:\n        /* \"#utility.yul\":4295:4306   */\n      0x00\n        /* \"#utility.yul\":4329:4335   */\n      dup3\n        /* \"#utility.yul\":4324:4327   */\n      dup3\n        /* \"#utility.yul\":4317:4336   */\n      mstore\n        /* \"#utility.yul\":4369:4373   */\n      0x20\n        /* \"#utility.yul\":4364:4367   */\n      dup3\n        /* \"#utility.yul\":4360:4374   */\n      add\n        /* \"#utility.yul\":4345:4374   */\n      swap1\n      pop\n        /* \"#utility.yul\":4211:4380   */\n      swap3\n      swap2\n      pop\n      pop\n      jump\t// out\n        /* \"#utility.yul\":4386:4693   */\n    tag_129:\n        /* \"#utility.yul\":4454:4455   */\n      0x00\n        /* \"#utility.yul\":4464:4577   */\n    tag_207:\n        /* \"#utility.yul\":4478:4484   */\n      dup4\n        /* \"#utility.yul\":4475:4476   */\n      dup2\n        /* \"#utility.yul\":4472:4485   */\n      lt\n        /* \"#utility.yul\":4464:4577   */\n      iszero\n      tag_209\n      jumpi\n        /* \"#utility.yul\":4563:4564   */\n      dup1\n        /* \"#utility.yul\":4558:4561   */\n      dup3\n        /* \"#utility.yul\":4554:4565   */\n      add\n        /* \"#utility.yul\":4548:4566   */\n      mload\n        /* \"#utility.yul\":4544:4545   */\n      dup2\n        /* \"#utility.yul\":4539:4542   */\n      dup5\n        /* \"#utility.yul\":4535:4546   */\n      add\n        /* \"#utility.yul\":4528:4567   */\n      mstore\n        /* \"#utility.yul\":4500:4502   */\n      0x20\n        /* \"#utility.yul\":4497:4498   */\n      dup2\n        /* \"#utility.yul\":4493:4503   */\n      add\n        /* \"#utility.yul\":4488:4503   */\n      swap1\n      pop\n        /* \"#utility.yul\":4464:4577   */\n      jump(tag_207)\n    tag_209:\n        /* \"#utility.yul\":4595:4601   */\n      dup4\n        /* \"#utility.yul\":4592:4593   */\n      dup2\n        /* \"#utility.yul\":4589:4602   */\n      gt\n        /* \"#utility.yul\":4586:4687   */\n      iszero\n      tag_210\n      jumpi\n        /* \"#utility.yul\":4675:4676   */\n      0x00\n        /* \"#utility.yul\":4666:4672   */\n      dup5\n        /* \"#utility.yul\":4661:4664   */\n      dup5\n        /* \"#utility.yul\":4657:4673   */\n      add\n        /* \"#utility.yul\":4650:4677   */\n      mstore\n        /* \"#utility.yul\":4586:4687   */\n    tag_210:\n        /* \"#utility.yul\":4435:4693   */\n      pop\n        /* \"#utility.yul\":4386:4693   */\n      pop\n      pop\n      pop\n      jump\t// out\n        /* \"#utility.yul\":4699:5063   */\n    tag_130:\n        /* \"#utility.yul\":4787:4790   */\n      0x00\n        /* \"#utility.yul\":4815:4854   */\n      tag_212\n        /* \"#utility.yul\":4848:4853   */\n      dup3\n        /* \"#utility.yul\":4815:4854   */\n      tag_127\n      jump\t// in\n    tag_212:\n        /* \"#utility.yul\":4870:4941   */\n      tag_213\n        /* \"#utility.yul\":4934:4940   */\n      dup2\n        /* \"#utility.yul\":4929:4932   */\n      dup6\n        /* \"#utility.yul\":4870:4941   */\n      tag_128\n      jump\t// in\n    tag_213:\n        /* \"#utility.yul\":4863:4941   */\n      swap4\n      pop\n        /* \"#utility.yul\":4950:5002   */\n      tag_214\n        /* \"#utility.yul\":4995:5001   */\n      dup2\n        /* \"#utility.yul\":4990:4993   */\n      dup6\n        /* \"#utility.yul\":4983:4987   */\n      0x20\n        /* \"#utility.yul\":4976:4981   */\n      dup7\n        /* \"#utility.yul\":4972:4988   */\n      add\n        /* \"#utility.yul\":4950:5002   */\n      tag_129\n      jump\t// in\n    tag_214:\n        /* \"#utility.yul\":5027:5056   */\n      tag_215\n        /* \"#utility.yul\":5049:5055   */\n      dup2\n        /* \"#utility.yul\":5027:5056   */\n      tag_115\n      jump\t// in\n    tag_215:\n        /* \"#utility.yul\":5022:5025   */\n      dup5\n        /* \"#utility.yul\":5018:5057   */\n      add\n        /* \"#utility.yul\":5011:5057   */\n      swap2\n      pop\n        /* \"#utility.yul\":4791:5063   */\n      pop\n        /* \"#utility.yul\":4699:5063   */\n      swap3\n      swap2\n      pop\n      pop\n      jump\t// out\n        /* \"#utility.yul\":5069:5382   */\n    tag_23:\n        /* \"#utility.yul\":5182:5186   */\n      0x00\n        /* \"#utility.yul\":5220:5222   */\n      0x20\n        /* \"#utility.yul\":5209:5218   */\n      dup3\n        /* \"#utility.yul\":5205:5223   */\n      add\n        /* \"#utility.yul\":5197:5223   */\n      swap1\n      pop\n        /* \"#utility.yul\":5269:5278   */\n      dup2\n        /* \"#utility.yul\":5263:5267   */\n      dup2\n        /* \"#utility.yul\":5259:5279   */\n      sub\n        /* \"#utility.yul\":5255:5256   */\n      0x00\n        /* \"#utility.yul\":5244:5253   */\n      dup4\n        /* \"#utility.yul\":5240:5257   */\n      add\n        /* \"#utility.yul\":5233:5280   */\n      mstore\n        /* \"#utility.yul\":5297:5375   */\n      tag_217\n        /* \"#utility.yul\":5370:5374   */\n      dup2\n        /* \"#utility.yul\":5361:5367   */\n      dup5\n        /* \"#utility.yul\":5297:5375   */\n      tag_130\n      jump\t// in\n    tag_217:\n        /* \"#utility.yul\":5289:5375   */\n      swap1\n      pop\n        /* \"#utility.yul\":5069:5382   */\n      swap3\n      swap2\n      pop\n      pop\n      jump\t// out\n        /* \"#utility.yul\":5388:5514   */\n    tag_131:\n        /* \"#utility.yul\":5425:5432   */\n      0x00\n        /* \"#utility.yul\":5465:5507   */\n      0xffffffffffffffffffffffffffffffffffffffff\n        /* \"#utility.yul\":5458:5463   */\n      dup3\n        /* \"#utility.yul\":5454:5508   */\n      and\n        /* \"#utility.yul\":5443:5508   */\n      swap1\n      pop\n        /* \"#utility.yul\":5388:5514   */\n      swap2\n      swap1\n      pop\n      jump\t// out\n        /* \"#utility.yul\":5520:5616   */\n    tag_132:\n        /* \"#utility.yul\":5557:5564   */\n      0x00\n        /* \"#utility.yul\":5586:5610   */\n      tag_220\n        /* \"#utility.yul\":5604:5609   */\n      dup3\n        /* \"#utility.yul\":5586:5610   */\n      tag_131\n      jump\t// in\n    tag_220:\n        /* \"#utility.yul\":5575:5610   */\n      swap1\n      pop\n        /* \"#utility.yul\":5520:5616   */\n      swap2\n      swap1\n      pop\n      jump\t// out\n        /* \"#utility.yul\":5622:5744   */\n    tag_133:\n        /* \"#utility.yul\":5695:5719   */\n      tag_222\n        /* \"#utility.yul\":5713:5718   */\n      dup2\n        /* \"#utility.yul\":5695:5719   */\n      tag_132\n      jump\t// in\n    tag_222:\n        /* \"#utility.yul\":5688:5693   */\n      dup2\n        /* \"#utility.yul\":5685:5720   */\n      eq\n        /* \"#utility.yul\":5675:5738   */\n      tag_223\n      jumpi\n        /* \"#utility.yul\":5734:5735   */\n      0x00\n        /* \"#utility.yul\":5731:5732   */\n      dup1\n        /* \"#utility.yul\":5724:5736   */\n      revert\n        /* \"#utility.yul\":5675:5738   */\n    tag_223:\n        /* \"#utility.yul\":5622:5744   */\n      pop\n      jump\t// out\n        /* \"#utility.yul\":5750:5889   */\n    tag_134:\n        /* \"#utility.yul\":5796:5801   */\n      0x00\n        /* \"#utility.yul\":5834:5840   */\n      dup2\n        /* \"#utility.yul\":5821:5841   */\n      calldataload\n        /* \"#utility.yul\":5812:5841   */\n      swap1\n      pop\n        /* \"#utility.yul\":5850:5883   */\n      tag_225\n        /* \"#utility.yul\":5877:5882   */\n      dup2\n        /* \"#utility.yul\":5850:5883   */\n      tag_133\n      jump\t// in\n    tag_225:\n        /* \"#utility.yul\":5750:5889   */\n      swap3\n      swap2\n      pop\n      pop\n      jump\t// out\n        /* \"#utility.yul\":5895:6224   */\n    tag_26:\n        /* \"#utility.yul\":5954:5960   */\n      0x00\n        /* \"#utility.yul\":6003:6005   */\n      0x20\n        /* \"#utility.yul\":5991:6000   */\n      dup3\n        /* \"#utility.yul\":5982:5989   */\n      dup5\n        /* \"#utility.yul\":5978:6001   */\n      sub\n        /* \"#utility.yul\":5974:6006   */\n      slt\n        /* \"#utility.yul\":5971:6090   */\n      iszero\n      tag_227\n      jumpi\n        /* \"#utility.yul\":6009:6088   */\n      tag_228\n      tag_111\n      jump\t// in\n    tag_228:\n        /* \"#utility.yul\":5971:6090   */\n    tag_227:\n        /* \"#utility.yul\":6129:6130   */\n      0x00\n        /* \"#utility.yul\":6154:6207   */\n      tag_229\n        /* \"#utility.yul\":6199:6206   */\n      dup5\n        /* \"#utility.yul\":6190:6196   */\n      dup3\n        /* \"#utility.yul\":6179:6188   */\n      dup6\n        /* \"#utility.yul\":6175:6197   */\n      add\n        /* \"#utility.yul\":6154:6207   */\n      tag_134\n      jump\t// in\n    tag_229:\n        /* \"#utility.yul\":6144:6207   */\n      swap2\n      pop\n        /* \"#utility.yul\":6100:6217   */\n      pop\n        /* \"#utility.yul\":5895:6224   */\n      swap3\n      swap2\n      pop\n      pop\n      jump\t// out\n        /* \"#utility.yul\":6230:6320   */\n    tag_135:\n        /* \"#utility.yul\":6264:6271   */\n      0x00\n        /* \"#utility.yul\":6307:6312   */\n      dup2\n        /* \"#utility.yul\":6300:6313   */\n      iszero\n        /* \"#utility.yul\":6293:6314   */\n      iszero\n        /* \"#utility.yul\":6282:6314   */\n      swap1\n      pop\n        /* \"#utility.yul\":6230:6320   */\n      swap2\n      swap1\n      pop\n      jump\t// out\n        /* \"#utility.yul\":6326:6435   */\n    tag_136:\n        /* \"#utility.yul\":6407:6428   */\n      tag_232\n        /* \"#utility.yul\":6422:6427   */\n      dup2\n        /* \"#utility.yul\":6407:6428   */\n      tag_135\n      jump\t// in\n    tag_232:\n        /* \"#utility.yul\":6402:6405   */\n      dup3\n        /* \"#utility.yul\":6395:6429   */\n      mstore\n        /* \"#utility.yul\":6326:6435   */\n      pop\n      pop\n      jump\t// out\n        /* \"#utility.yul\":6441:6651   */\n    tag_32:\n        /* \"#utility.yul\":6528:6532   */\n      0x00\n        /* \"#utility.yul\":6566:6568   */\n      0x20\n        /* \"#utility.yul\":6555:6564   */\n      dup3\n        /* \"#utility.yul\":6551:6569   */\n      add\n        /* \"#utility.yul\":6543:6569   */\n      swap1\n      pop\n        /* \"#utility.yul\":6579:6644   */\n      tag_234\n        /* \"#utility.yul\":6641:6642   */\n      0x00\n        /* \"#utility.yul\":6630:6639   */\n      dup4\n        /* \"#utility.yul\":6626:6643   */\n      add\n        /* \"#utility.yul\":6617:6623   */\n      dup5\n        /* \"#utility.yul\":6579:6644   */\n      tag_136\n      jump\t// in\n    tag_234:\n        /* \"#utility.yul\":6441:6651   */\n      swap3\n      swap2\n      pop\n      pop\n      jump\t// out\n        /* \"#utility.yul\":6657:6775   */\n    tag_137:\n        /* \"#utility.yul\":6744:6768   */\n      tag_236\n        /* \"#utility.yul\":6762:6767   */\n      dup2\n        /* \"#utility.yul\":6744:6768   */\n      tag_132\n      jump\t// in\n    tag_236:\n        /* \"#utility.yul\":6739:6742   */\n      dup3\n        /* \"#utility.yul\":6732:6769   */\n      mstore\n        /* \"#utility.yul\":6657:6775   */\n      pop\n      pop\n      jump\t// out\n        /* \"#utility.yul\":6781:7003   */\n    tag_36:\n        /* \"#utility.yul\":6874:6878   */\n      0x00\n        /* \"#utility.yul\":6912:6914   */\n      0x20\n        /* \"#utility.yul\":6901:6910   */\n      dup3\n        /* \"#utility.yul\":6897:6915   */\n      add\n        /* \"#utility.yul\":6889:6915   */\n      swap1\n      pop\n        /* \"#utility.yul\":6925:6996   */\n      tag_238\n        /* \"#utility.yul\":6993:6994   */\n      0x00\n        /* \"#utility.yul\":6982:6991   */\n      dup4\n        /* \"#utility.yul\":6978:6995   */\n      add\n        /* \"#utility.yul\":6969:6975   */\n      dup5\n        /* \"#utility.yul\":6925:6996   */\n      tag_137\n      jump\t// in\n    tag_238:\n        /* \"#utility.yul\":6781:7003   */\n      swap3\n      swap2\n      pop\n      pop\n      jump\t// out\n        /* \"#utility.yul\":7009:7663   */\n    tag_39:\n        /* \"#utility.yul\":7087:7093   */\n      0x00\n        /* \"#utility.yul\":7095:7101   */\n      dup1\n        /* \"#utility.yul\":7144:7146   */\n      0x40\n        /* \"#utility.yul\":7132:7141   */\n      dup4\n        /* \"#utility.yul\":7123:7130   */\n      dup6\n        /* \"#utility.yul\":7119:7142   */\n      sub\n        /* \"#utility.yul\":7115:7147   */\n      slt\n        /* \"#utility.yul\":7112:7231   */\n      iszero\n      tag_240\n      jumpi\n        /* \"#utility.yul\":7150:7229   */\n      tag_241\n      tag_111\n      jump\t// in\n    tag_241:\n        /* \"#utility.yul\":7112:7231   */\n    tag_240:\n        /* \"#utility.yul\":7270:7271   */\n      0x00\n        /* \"#utility.yul\":7295:7348   */\n      tag_242\n        /* \"#utility.yul\":7340:7347   */\n      dup6\n        /* \"#utility.yul\":7331:7337   */\n      dup3\n        /* \"#utility.yul\":7320:7329   */\n      dup7\n        /* \"#utility.yul\":7316:7338   */\n      add\n        /* \"#utility.yul\":7295:7348   */\n      tag_126\n      jump\t// in\n    tag_242:\n        /* \"#utility.yul\":7285:7348   */\n      swap3\n      pop\n        /* \"#utility.yul\":7241:7358   */\n      pop\n        /* \"#utility.yul\":7425:7427   */\n      0x20\n        /* \"#utility.yul\":7414:7423   */\n      dup4\n        /* \"#utility.yul\":7410:7428   */\n      add\n        /* \"#utility.yul\":7397:7429   */\n      calldataload\n        /* \"#utility.yul\":7456:7474   */\n      0xffffffffffffffff\n        /* \"#utility.yul\":7448:7454   */\n      dup2\n        /* \"#utility.yul\":7445:7475   */\n      gt\n        /* \"#utility.yul\":7442:7559   */\n      iszero\n      tag_243\n      jumpi\n        /* \"#utility.yul\":7478:7557   */\n      tag_244\n      tag_112\n      jump\t// in\n    tag_244:\n        /* \"#utility.yul\":7442:7559   */\n    tag_243:\n        /* \"#utility.yul\":7583:7646   */\n      tag_245\n        /* \"#utility.yul\":7638:7645   */\n      dup6\n        /* \"#utility.yul\":7629:7635   */\n      dup3\n        /* \"#utility.yul\":7618:7627   */\n      dup7\n        /* \"#utility.yul\":7614:7636   */\n      add\n        /* \"#utility.yul\":7583:7646   */\n      tag_122\n      jump\t// in\n    tag_245:\n        /* \"#utility.yul\":7573:7646   */\n      swap2\n      pop\n        /* \"#utility.yul\":7368:7656   */\n      pop\n        /* \"#utility.yul\":7009:7663   */\n      swap3\n      pop\n      swap3\n      swap1\n      pop\n      jump\t// out\n        /* \"#utility.yul\":7669:7793   */\n    tag_138:\n        /* \"#utility.yul\":7746:7752   */\n      0x00\n        /* \"#utility.yul\":7780:7785   */\n      dup2\n        /* \"#utility.yul\":7774:7786   */\n      mload\n        /* \"#utility.yul\":7764:7786   */\n      swap1\n      pop\n        /* \"#utility.yul\":7669:7793   */\n      swap2\n      swap1\n      pop\n      jump\t// out\n        /* \"#utility.yul\":7799:7993   */\n    tag_139:\n        /* \"#utility.yul\":7908:7919   */\n      0x00\n        /* \"#utility.yul\":7942:7948   */\n      dup3\n        /* \"#utility.yul\":7937:7940   */\n      dup3\n        /* \"#utility.yul\":7930:7949   */\n      mstore\n        /* \"#utility.yul\":7982:7986   */\n      0x20\n        /* \"#utility.yul\":7977:7980   */\n      dup3\n        /* \"#utility.yul\":7973:7987   */\n      add\n        /* \"#utility.yul\":7958:7987   */\n      swap1\n      pop\n        /* \"#utility.yul\":7799:7993   */\n      swap3\n      swap2\n      pop\n      pop\n      jump\t// out\n        /* \"#utility.yul\":7999:8141   */\n    tag_140:\n        /* \"#utility.yul\":8076:8080   */\n      0x00\n        /* \"#utility.yul\":8099:8102   */\n      dup2\n        /* \"#utility.yul\":8091:8102   */\n      swap1\n      pop\n        /* \"#utility.yul\":8129:8133   */\n      0x20\n        /* \"#utility.yul\":8124:8127   */\n      dup3\n        /* \"#utility.yul\":8120:8134   */\n      add\n        /* \"#utility.yul\":8112:8134   */\n      swap1\n      pop\n        /* \"#utility.yul\":7999:8141   */\n      swap2\n      swap1\n      pop\n      jump\t// out\n        /* \"#utility.yul\":8147:8306   */\n    tag_141:\n        /* \"#utility.yul\":8221:8232   */\n      0x00\n        /* \"#utility.yul\":8255:8261   */\n      dup3\n        /* \"#utility.yul\":8250:8253   */\n      dup3\n        /* \"#utility.yul\":8243:8262   */\n      mstore\n        /* \"#utility.yul\":8295:8299   */\n      0x20\n        /* \"#utility.yul\":8290:8293   */\n      dup3\n        /* \"#utility.yul\":8286:8300   */\n      add\n        /* \"#utility.yul\":8271:8300   */\n      swap1\n      pop\n        /* \"#utility.yul\":8147:8306   */\n      swap3\n      swap2\n      pop\n      pop\n      jump\t// out\n        /* \"#utility.yul\":8312:8656   */\n    tag_142:\n        /* \"#utility.yul\":8390:8393   */\n      0x00\n        /* \"#utility.yul\":8418:8457   */\n      tag_251\n        /* \"#utility.yul\":8451:8456   */\n      dup3\n        /* \"#utility.yul\":8418:8457   */\n      tag_127\n      jump\t// in\n    tag_251:\n        /* \"#utility.yul\":8473:8534   */\n      tag_252\n        /* \"#utility.yul\":8527:8533   */\n      dup2\n        /* \"#utility.yul\":8522:8525   */\n      dup6\n        /* \"#utility.yul\":8473:8534   */\n      tag_141\n      jump\t// in\n    tag_252:\n        /* \"#utility.yul\":8466:8534   */\n      swap4\n      pop\n        /* \"#utility.yul\":8543:8595   */\n      tag_253\n        /* \"#utility.yul\":8588:8594   */\n      dup2\n        /* \"#utility.yul\":8583:8586   */\n      dup6\n        /* \"#utility.yul\":8576:8580   */\n      0x20\n        /* \"#utility.yul\":8569:8574   */\n      dup7\n        /* \"#utility.yul\":8565:8581   */\n      add\n        /* \"#utility.yul\":8543:8595   */\n      tag_129\n      jump\t// in\n    tag_253:\n        /* \"#utility.yul\":8620:8649   */\n      tag_254\n        /* \"#utility.yul\":8642:8648   */\n      dup2\n        /* \"#utility.yul\":8620:8649   */\n      tag_115\n      jump\t// in\n    tag_254:\n        /* \"#utility.yul\":8615:8618   */\n      dup5\n        /* \"#utility.yul\":8611:8650   */\n      add\n        /* \"#utility.yul\":8604:8650   */\n      swap2\n      pop\n        /* \"#utility.yul\":8394:8656   */\n      pop\n        /* \"#utility.yul\":8312:8656   */\n      swap3\n      swap2\n      pop\n      pop\n      jump\t// out\n        /* \"#utility.yul\":8662:8858   */\n    tag_143:\n        /* \"#utility.yul\":8751:8761   */\n      0x00\n        /* \"#utility.yul\":8786:8852   */\n      tag_256\n        /* \"#utility.yul\":8848:8851   */\n      dup4\n        /* \"#utility.yul\":8840:8846   */\n      dup4\n        /* \"#utility.yul\":8786:8852   */\n      tag_142\n      jump\t// in\n    tag_256:\n        /* \"#utility.yul\":8772:8852   */\n      swap1\n      pop\n        /* \"#utility.yul\":8662:8858   */\n      swap3\n      swap2\n      pop\n      pop\n      jump\t// out\n        /* \"#utility.yul\":8864:8987   */\n    tag_144:\n        /* \"#utility.yul\":8944:8948   */\n      0x00\n        /* \"#utility.yul\":8976:8980   */\n      0x20\n        /* \"#utility.yul\":8971:8974   */\n      dup3\n        /* \"#utility.yul\":8967:8981   */\n      add\n        /* \"#utility.yul\":8959:8981   */\n      swap1\n      pop\n        /* \"#utility.yul\":8864:8987   */\n      swap2\n      swap1\n      pop\n      jump\t// out\n        /* \"#utility.yul\":9021:10012   */\n    tag_145:\n        /* \"#utility.yul\":9160:9163   */\n      0x00\n        /* \"#utility.yul\":9189:9253   */\n      tag_259\n        /* \"#utility.yul\":9247:9252   */\n      dup3\n        /* \"#utility.yul\":9189:9253   */\n      tag_138\n      jump\t// in\n    tag_259:\n        /* \"#utility.yul\":9269:9365   */\n      tag_260\n        /* \"#utility.yul\":9358:9364   */\n      dup2\n        /* \"#utility.yul\":9353:9356   */\n      dup6\n        /* \"#utility.yul\":9269:9365   */\n      tag_139\n      jump\t// in\n    tag_260:\n        /* \"#utility.yul\":9262:9365   */\n      swap4\n      pop\n        /* \"#utility.yul\":9391:9394   */\n      dup4\n        /* \"#utility.yul\":9436:9440   */\n      0x20\n        /* \"#utility.yul\":9428:9434   */\n      dup3\n        /* \"#utility.yul\":9424:9441   */\n      mul\n        /* \"#utility.yul\":9419:9422   */\n      dup6\n        /* \"#utility.yul\":9415:9442   */\n      add\n        /* \"#utility.yul\":9466:9532   */\n      tag_261\n        /* \"#utility.yul\":9526:9531   */\n      dup6\n        /* \"#utility.yul\":9466:9532   */\n      tag_140\n      jump\t// in\n    tag_261:\n        /* \"#utility.yul\":9555:9562   */\n      dup1\n        /* \"#utility.yul\":9586:9587   */\n      0x00\n        /* \"#utility.yul\":9571:9967   */\n    tag_262:\n        /* \"#utility.yul\":9596:9602   */\n      dup6\n        /* \"#utility.yul\":9593:9594   */\n      dup2\n        /* \"#utility.yul\":9590:9603   */\n      lt\n        /* \"#utility.yul\":9571:9967   */\n      iszero\n      tag_264\n      jumpi\n        /* \"#utility.yul\":9667:9676   */\n      dup5\n        /* \"#utility.yul\":9661:9665   */\n      dup5\n        /* \"#utility.yul\":9657:9677   */\n      sub\n        /* \"#utility.yul\":9652:9655   */\n      dup10\n        /* \"#utility.yul\":9645:9678   */\n      mstore\n        /* \"#utility.yul\":9718:9724   */\n      dup2\n        /* \"#utility.yul\":9712:9725   */\n      mload\n        /* \"#utility.yul\":9746:9830   */\n      tag_265\n        /* \"#utility.yul\":9825:9829   */\n      dup6\n        /* \"#utility.yul\":9810:9823   */\n      dup3\n        /* \"#utility.yul\":9746:9830   */\n      tag_143\n      jump\t// in\n    tag_265:\n        /* \"#utility.yul\":9738:9830   */\n      swap5\n      pop\n        /* \"#utility.yul\":9853:9923   */\n      tag_266\n        /* \"#utility.yul\":9916:9922   */\n      dup4\n        /* \"#utility.yul\":9853:9923   */\n      tag_144\n      jump\t// in\n    tag_266:\n        /* \"#utility.yul\":9843:9923   */\n      swap3\n      pop\n        /* \"#utility.yul\":9952:9956   */\n      0x20\n        /* \"#utility.yul\":9947:9950   */\n      dup11\n        /* \"#utility.yul\":9943:9957   */\n      add\n        /* \"#utility.yul\":9936:9957   */\n      swap10\n      pop\n        /* \"#utility.yul\":9631:9967   */\n      pop\n        /* \"#utility.yul\":9618:9619   */\n      0x01\n        /* \"#utility.yul\":9615:9616   */\n      dup2\n        /* \"#utility.yul\":9611:9620   */\n      add\n        /* \"#utility.yul\":9606:9620   */\n      swap1\n      pop\n        /* \"#utility.yul\":9571:9967   */\n      jump(tag_262)\n    tag_264:\n        /* \"#utility.yul\":9575:9589   */\n      pop\n        /* \"#utility.yul\":9983:9987   */\n      dup3\n        /* \"#utility.yul\":9976:9987   */\n      swap8\n      pop\n        /* \"#utility.yul\":10003:10006   */\n      dup8\n        /* \"#utility.yul\":9996:10006   */\n      swap6\n      pop\n        /* \"#utility.yul\":9165:10012   */\n      pop\n      pop\n      pop\n      pop\n      pop\n        /* \"#utility.yul\":9021:10012   */\n      swap3\n      swap2\n      pop\n      pop\n      jump\t// out\n        /* \"#utility.yul\":10018:10431   */\n    tag_47:\n        /* \"#utility.yul\":10181:10185   */\n      0x00\n        /* \"#utility.yul\":10219:10221   */\n      0x20\n        /* \"#utility.yul\":10208:10217   */\n      dup3\n        /* \"#utility.yul\":10204:10222   */\n      add\n        /* \"#utility.yul\":10196:10222   */\n      swap1\n      pop\n        /* \"#utility.yul\":10268:10277   */\n      dup2\n        /* \"#utility.yul\":10262:10266   */\n      dup2\n        /* \"#utility.yul\":10258:10278   */\n      sub\n        /* \"#utility.yul\":10254:10255   */\n      0x00\n        /* \"#utility.yul\":10243:10252   */\n      dup4\n        /* \"#utility.yul\":10239:10256   */\n      add\n        /* \"#utility.yul\":10232:10279   */\n      mstore\n        /* \"#utility.yul\":10296:10424   */\n      tag_268\n        /* \"#utility.yul\":10419:10423   */\n      dup2\n        /* \"#utility.yul\":10410:10416   */\n      dup5\n        /* \"#utility.yul\":10296:10424   */\n      tag_145\n      jump\t// in\n    tag_268:\n        /* \"#utility.yul\":10288:10424   */\n      swap1\n      pop\n        /* \"#utility.yul\":10018:10431   */\n      swap3\n      swap2\n      pop\n      pop\n      jump\t// out\n        /* \"#utility.yul\":10437:10601   */\n    tag_146:\n        /* \"#utility.yul\":10577:10593   */\n      0x4f6e6c792077686974656c697374000000000000000000000000000000000000\n        /* \"#utility.yul\":10573:10574   */\n      0x00\n        /* \"#utility.yul\":10565:10571   */\n      dup3\n        /* \"#utility.yul\":10561:10575   */\n      add\n        /* \"#utility.yul\":10554:10594   */\n      mstore\n        /* \"#utility.yul\":10437:10601   */\n      pop\n      jump\t// out\n        /* \"#utility.yul\":10607:10973   */\n    tag_147:\n        /* \"#utility.yul\":10749:10752   */\n      0x00\n        /* \"#utility.yul\":10770:10837   */\n      tag_271\n        /* \"#utility.yul\":10834:10836   */\n      0x0e\n        /* \"#utility.yul\":10829:10832   */\n      dup4\n        /* \"#utility.yul\":10770:10837   */\n      tag_128\n      jump\t// in\n    tag_271:\n        /* \"#utility.yul\":10763:10837   */\n      swap2\n      pop\n        /* \"#utility.yul\":10846:10939   */\n      tag_272\n        /* \"#utility.yul\":10935:10938   */\n      dup3\n        /* \"#utility.yul\":10846:10939   */\n      tag_146\n      jump\t// in\n    tag_272:\n        /* \"#utility.yul\":10964:10966   */\n      0x20\n        /* \"#utility.yul\":10959:10962   */\n      dup3\n        /* \"#utility.yul\":10955:10967   */\n      add\n        /* \"#utility.yul\":10948:10967   */\n      swap1\n      pop\n        /* \"#utility.yul\":10607:10973   */\n      swap2\n      swap1\n      pop\n      jump\t// out\n        /* \"#utility.yul\":10979:11398   */\n    tag_51:\n        /* \"#utility.yul\":11145:11149   */\n      0x00\n        /* \"#utility.yul\":11183:11185   */\n      0x20\n        /* \"#utility.yul\":11172:11181   */\n      dup3\n        /* \"#utility.yul\":11168:11186   */\n      add\n        /* \"#utility.yul\":11160:11186   */\n      swap1\n      pop\n        /* \"#utility.yul\":11232:11241   */\n      dup2\n        /* \"#utility.yul\":11226:11230   */\n      dup2\n        /* \"#utility.yul\":11222:11242   */\n      sub\n        /* \"#utility.yul\":11218:11219   */\n      0x00\n        /* \"#utility.yul\":11207:11216   */\n      dup4\n        /* \"#utility.yul\":11203:11220   */\n      add\n        /* \"#utility.yul\":11196:11243   */\n      mstore\n        /* \"#utility.yul\":11260:11391   */\n      tag_274\n        /* \"#utility.yul\":11386:11390   */\n      dup2\n        /* \"#utility.yul\":11260:11391   */\n      tag_147\n      jump\t// in\n    tag_274:\n        /* \"#utility.yul\":11252:11391   */\n      swap1\n      pop\n        /* \"#utility.yul\":10979:11398   */\n      swap2\n      swap1\n      pop\n      jump\t// out\n        /* \"#utility.yul\":11404:11584   */\n    tag_148:\n        /* \"#utility.yul\":11452:11529   */\n      0x4e487b7100000000000000000000000000000000000000000000000000000000\n        /* \"#utility.yul\":11449:11450   */\n      0x00\n        /* \"#utility.yul\":11442:11530   */\n      mstore\n        /* \"#utility.yul\":11549:11553   */\n      0x11\n        /* \"#utility.yul\":11546:11547   */\n      0x04\n        /* \"#utility.yul\":11539:11554   */\n      mstore\n        /* \"#utility.yul\":11573:11577   */\n      0x24\n        /* \"#utility.yul\":11570:11571   */\n      0x00\n        /* \"#utility.yul\":11563:11578   */\n      revert\n        /* \"#utility.yul\":11590:11781   */\n    tag_57:\n        /* \"#utility.yul\":11630:11634   */\n      0x00\n        /* \"#utility.yul\":11650:11670   */\n      tag_277\n        /* \"#utility.yul\":11668:11669   */\n      dup3\n        /* \"#utility.yul\":11650:11670   */\n      tag_123\n      jump\t// in\n    tag_277:\n        /* \"#utility.yul\":11645:11670   */\n      swap2\n      pop\n        /* \"#utility.yul\":11684:11704   */\n      tag_278\n        /* \"#utility.yul\":11702:11703   */\n      dup4\n        /* \"#utility.yul\":11684:11704   */\n      tag_123\n      jump\t// in\n    tag_278:\n        /* \"#utility.yul\":11679:11704   */\n      swap3\n      pop\n        /* \"#utility.yul\":11723:11724   */\n      dup3\n        /* \"#utility.yul\":11720:11721   */\n      dup3\n        /* \"#utility.yul\":11717:11725   */\n      lt\n        /* \"#utility.yul\":11714:11748   */\n      iszero\n      tag_279\n      jumpi\n        /* \"#utility.yul\":11728:11746   */\n      tag_280\n      tag_148\n      jump\t// in\n    tag_280:\n        /* \"#utility.yul\":11714:11748   */\n    tag_279:\n        /* \"#utility.yul\":11773:11774   */\n      dup3\n        /* \"#utility.yul\":11770:11771   */\n      dup3\n        /* \"#utility.yul\":11766:11775   */\n      sub\n        /* \"#utility.yul\":11758:11775   */\n      swap1\n      pop\n        /* \"#utility.yul\":11590:11781   */\n      swap3\n      swap2\n      pop\n      pop\n      jump\t// out\n        /* \"#utility.yul\":11787:11967   */\n    tag_61:\n        /* \"#utility.yul\":11835:11912   */\n      0x4e487b7100000000000000000000000000000000000000000000000000000000\n        /* \"#utility.yul\":11832:11833   */\n      0x00\n        /* \"#utility.yul\":11825:11913   */\n      mstore\n        /* \"#utility.yul\":11932:11936   */\n      0x32\n        /* \"#utility.yul\":11929:11930   */\n      0x04\n        /* \"#utility.yul\":11922:11937   */\n      mstore\n        /* \"#utility.yul\":11956:11960   */\n      0x24\n        /* \"#utility.yul\":11953:11954   */\n      0x00\n        /* \"#utility.yul\":11946:11961   */\n      revert\n        /* \"#utility.yul\":11973:12153   */\n    tag_149:\n        /* \"#utility.yul\":12021:12098   */\n      0x4e487b7100000000000000000000000000000000000000000000000000000000\n        /* \"#utility.yul\":12018:12019   */\n      0x00\n        /* \"#utility.yul\":12011:12099   */\n      mstore\n        /* \"#utility.yul\":12118:12122   */\n      0x22\n        /* \"#utility.yul\":12115:12116   */\n      0x04\n        /* \"#utility.yul\":12108:12123   */\n      mstore\n        /* \"#utility.yul\":12142:12146   */\n      0x24\n        /* \"#utility.yul\":12139:12140   */\n      0x00\n        /* \"#utility.yul\":12132:12147   */\n      revert\n        /* \"#utility.yul\":12159:12479   */\n    tag_64:\n        /* \"#utility.yul\":12203:12209   */\n      0x00\n        /* \"#utility.yul\":12240:12241   */\n      0x02\n        /* \"#utility.yul\":12234:12238   */\n      dup3\n        /* \"#utility.yul\":12230:12242   */\n      div\n        /* \"#utility.yul\":12220:12242   */\n      swap1\n      pop\n        /* \"#utility.yul\":12287:12288   */\n      0x01\n        /* \"#utility.yul\":12281:12285   */\n      dup3\n        /* \"#utility.yul\":12277:12289   */\n      and\n        /* \"#utility.yul\":12308:12326   */\n      dup1\n        /* \"#utility.yul\":12298:12379   */\n      tag_284\n      jumpi\n        /* \"#utility.yul\":12364:12368   */\n      0x7f\n        /* \"#utility.yul\":12356:12362   */\n      dup3\n        /* \"#utility.yul\":12352:12369   */\n      and\n        /* \"#utility.yul\":12342:12369   */\n      swap2\n      pop\n        /* \"#utility.yul\":12298:12379   */\n    tag_284:\n        /* \"#utility.yul\":12426:12428   */\n      0x20\n        /* \"#utility.yul\":12418:12424   */\n      dup3\n        /* \"#utility.yul\":12415:12429   */\n      lt\n        /* \"#utility.yul\":12395:12413   */\n      dup2\n        /* \"#utility.yul\":12392:12430   */\n      sub\n        /* \"#utility.yul\":12389:12473   */\n      tag_285\n      jumpi\n        /* \"#utility.yul\":12445:12463   */\n      tag_286\n      tag_149\n      jump\t// in\n    tag_286:\n        /* \"#utility.yul\":12389:12473   */\n    tag_285:\n        /* \"#utility.yul\":12210:12479   */\n      pop\n        /* \"#utility.yul\":12159:12479   */\n      swap2\n      swap1\n      pop\n      jump\t// out\n        /* \"#utility.yul\":12485:12645   */\n    tag_150:\n        /* \"#utility.yul\":12625:12637   */\n      0x4f6e6c79206f776e657200000000000000000000000000000000000000000000\n        /* \"#utility.yul\":12621:12622   */\n      0x00\n        /* \"#utility.yul\":12613:12619   */\n      dup3\n        /* \"#utility.yul\":12609:12623   */\n      add\n        /* \"#utility.yul\":12602:12638   */\n      mstore\n        /* \"#utility.yul\":12485:12645   */\n      pop\n      jump\t// out\n        /* \"#utility.yul\":12651:13017   */\n    tag_151:\n        /* \"#utility.yul\":12793:12796   */\n      0x00\n        /* \"#utility.yul\":12814:12881   */\n      tag_289\n        /* \"#utility.yul\":12878:12880   */\n      0x0a\n        /* \"#utility.yul\":12873:12876   */\n      dup4\n        /* \"#utility.yul\":12814:12881   */\n      tag_128\n      jump\t// in\n    tag_289:\n        /* \"#utility.yul\":12807:12881   */\n      swap2\n      pop\n        /* \"#utility.yul\":12890:12983   */\n      tag_290\n        /* \"#utility.yul\":12979:12982   */\n      dup3\n        /* \"#utility.yul\":12890:12983   */\n      tag_150\n      jump\t// in\n    tag_290:\n        /* \"#utility.yul\":13008:13010   */\n      0x20\n        /* \"#utility.yul\":13003:13006   */\n      dup3\n        /* \"#utility.yul\":12999:13011   */\n      add\n        /* \"#utility.yul\":12992:13011   */\n      swap1\n      pop\n        /* \"#utility.yul\":12651:13017   */\n      swap2\n      swap1\n      pop\n      jump\t// out\n        /* \"#utility.yul\":13023:13442   */\n    tag_72:\n        /* \"#utility.yul\":13189:13193   */\n      0x00\n        /* \"#utility.yul\":13227:13229   */\n      0x20\n        /* \"#utility.yul\":13216:13225   */\n      dup3\n        /* \"#utility.yul\":13212:13230   */\n      add\n        /* \"#utility.yul\":13204:13230   */\n      swap1\n      pop\n        /* \"#utility.yul\":13276:13285   */\n      dup2\n        /* \"#utility.yul\":13270:13274   */\n      dup2\n        /* \"#utility.yul\":13266:13286   */\n      sub\n        /* \"#utility.yul\":13262:13263   */\n      0x00\n        /* \"#utility.yul\":13251:13260   */\n      dup4\n        /* \"#utility.yul\":13247:13264   */\n      add\n        /* \"#utility.yul\":13240:13287   */\n      mstore\n        /* \"#utility.yul\":13304:13435   */\n      tag_292\n        /* \"#utility.yul\":13430:13434   */\n      dup2\n        /* \"#utility.yul\":13304:13435   */\n      tag_151\n      jump\t// in\n    tag_292:\n        /* \"#utility.yul\":13296:13435   */\n      swap1\n      pop\n        /* \"#utility.yul\":13023:13442   */\n      swap2\n      swap1\n      pop\n      jump\t// out\n        /* \"#utility.yul\":13448:13589   */\n    tag_152:\n        /* \"#utility.yul\":13497:13501   */\n      0x00\n        /* \"#utility.yul\":13520:13523   */\n      dup2\n        /* \"#utility.yul\":13512:13523   */\n      swap1\n      pop\n        /* \"#utility.yul\":13543:13546   */\n      dup2\n        /* \"#utility.yul\":13540:13541   */\n      0x00\n        /* \"#utility.yul\":13533:13547   */\n      mstore\n        /* \"#utility.yul\":13577:13581   */\n      0x20\n        /* \"#utility.yul\":13574:13575   */\n      0x00\n        /* \"#utility.yul\":13564:13582   */\n      keccak256\n        /* \"#utility.yul\":13556:13582   */\n      swap1\n      pop\n        /* \"#utility.yul\":13448:13589   */\n      swap2\n      swap1\n      pop\n      jump\t// out\n        /* \"#utility.yul\":13619:14421   */\n    tag_153:\n        /* \"#utility.yul\":13704:13707   */\n      0x00\n        /* \"#utility.yul\":13741:13746   */\n      dup2\n        /* \"#utility.yul\":13735:13747   */\n      sload\n        /* \"#utility.yul\":13770:13806   */\n      tag_295\n        /* \"#utility.yul\":13796:13805   */\n      dup2\n        /* \"#utility.yul\":13770:13806   */\n      tag_64\n      jump\t// in\n    tag_295:\n        /* \"#utility.yul\":13822:13893   */\n      tag_296\n        /* \"#utility.yul\":13886:13892   */\n      dup2\n        /* \"#utility.yul\":13881:13884   */\n      dup7\n        /* \"#utility.yul\":13822:13893   */\n      tag_128\n      jump\t// in\n    tag_296:\n        /* \"#utility.yul\":13815:13893   */\n      swap5\n      pop\n        /* \"#utility.yul\":13924:13925   */\n      0x01\n        /* \"#utility.yul\":13913:13922   */\n      dup3\n        /* \"#utility.yul\":13909:13926   */\n      and\n        /* \"#utility.yul\":13940:13941   */\n      0x00\n        /* \"#utility.yul\":13935:14070   */\n      dup2\n      eq\n      tag_298\n      jumpi\n        /* \"#utility.yul\":14084:14085   */\n      0x01\n        /* \"#utility.yul\":14079:14415   */\n      dup2\n      eq\n      tag_299\n      jumpi\n        /* \"#utility.yul\":13902:14415   */\n      jump(tag_297)\n        /* \"#utility.yul\":13935:14070   */\n    tag_298:\n        /* \"#utility.yul\":14019:14023   */\n      0xff\n        /* \"#utility.yul\":14015:14024   */\n      not\n        /* \"#utility.yul\":14004:14013   */\n      dup4\n        /* \"#utility.yul\":14000:14025   */\n      and\n        /* \"#utility.yul\":13995:13998   */\n      dup7\n        /* \"#utility.yul\":13988:14026   */\n      mstore\n        /* \"#utility.yul\":14055:14059   */\n      0x20\n        /* \"#utility.yul\":14050:14053   */\n      dup7\n        /* \"#utility.yul\":14046:14060   */\n      add\n        /* \"#utility.yul\":14039:14060   */\n      swap4\n      pop\n        /* \"#utility.yul\":13935:14070   */\n      jump(tag_297)\n        /* \"#utility.yul\":14079:14415   */\n    tag_299:\n        /* \"#utility.yul\":14146:14184   */\n      tag_300\n        /* \"#utility.yul\":14178:14183   */\n      dup6\n        /* \"#utility.yul\":14146:14184   */\n      tag_152\n      jump\t// in\n    tag_300:\n        /* \"#utility.yul\":14206:14207   */\n      0x00\n        /* \"#utility.yul\":14220:14374   */\n    tag_301:\n        /* \"#utility.yul\":14234:14240   */\n      dup4\n        /* \"#utility.yul\":14231:14232   */\n      dup2\n        /* \"#utility.yul\":14228:14241   */\n      lt\n        /* \"#utility.yul\":14220:14374   */\n      iszero\n      tag_303\n      jumpi\n        /* \"#utility.yul\":14308:14315   */\n      dup2\n        /* \"#utility.yul\":14302:14316   */\n      sload\n        /* \"#utility.yul\":14298:14299   */\n      dup2\n        /* \"#utility.yul\":14293:14296   */\n      dup10\n        /* \"#utility.yul\":14289:14300   */\n      add\n        /* \"#utility.yul\":14282:14317   */\n      mstore\n        /* \"#utility.yul\":14358:14359   */\n      0x01\n        /* \"#utility.yul\":14349:14356   */\n      dup3\n        /* \"#utility.yul\":14345:14360   */\n      add\n        /* \"#utility.yul\":14334:14360   */\n      swap2\n      pop\n        /* \"#utility.yul\":14256:14260   */\n      0x20\n        /* \"#utility.yul\":14253:14254   */\n      dup2\n        /* \"#utility.yul\":14249:14261   */\n      add\n        /* \"#utility.yul\":14244:14261   */\n      swap1\n      pop\n        /* \"#utility.yul\":14220:14374   */\n      jump(tag_301)\n    tag_303:\n        /* \"#utility.yul\":14403:14404   */\n      dup1\n        /* \"#utility.yul\":14398:14401   */\n      dup9\n        /* \"#utility.yul\":14394:14405   */\n      add\n        /* \"#utility.yul\":14387:14405   */\n      swap6\n      pop\n        /* \"#utility.yul\":14086:14415   */\n      pop\n      pop\n        /* \"#utility.yul\":13902:14415   */\n    tag_297:\n      pop\n        /* \"#utility.yul\":13708:14421   */\n      pop\n      pop\n        /* \"#utility.yul\":13619:14421   */\n      swap3\n      swap2\n      pop\n      pop\n      jump\t// out\n        /* \"#utility.yul\":14427:14935   */\n    tag_82:\n        /* \"#utility.yul\":14585:14589   */\n      0x00\n        /* \"#utility.yul\":14623:14625   */\n      0x40\n        /* \"#utility.yul\":14612:14621   */\n      dup3\n        /* \"#utility.yul\":14608:14626   */\n      add\n        /* \"#utility.yul\":14600:14626   */\n      swap1\n      pop\n        /* \"#utility.yul\":14672:14681   */\n      dup2\n        /* \"#utility.yul\":14666:14670   */\n      dup2\n        /* \"#utility.yul\":14662:14682   */\n      sub\n        /* \"#utility.yul\":14658:14659   */\n      0x00\n        /* \"#utility.yul\":14647:14656   */\n      dup4\n        /* \"#utility.yul\":14643:14660   */\n      add\n        /* \"#utility.yul\":14636:14683   */\n      mstore\n        /* \"#utility.yul\":14700:14775   */\n      tag_305\n        /* \"#utility.yul\":14770:14774   */\n      dup2\n        /* \"#utility.yul\":14761:14767   */\n      dup6\n        /* \"#utility.yul\":14700:14775   */\n      tag_153\n      jump\t// in\n    tag_305:\n        /* \"#utility.yul\":14692:14775   */\n      swap1\n      pop\n        /* \"#utility.yul\":14822:14831   */\n      dup2\n        /* \"#utility.yul\":14816:14820   */\n      dup2\n        /* \"#utility.yul\":14812:14832   */\n      sub\n        /* \"#utility.yul\":14807:14809   */\n      0x20\n        /* \"#utility.yul\":14796:14805   */\n      dup4\n        /* \"#utility.yul\":14792:14810   */\n      add\n        /* \"#utility.yul\":14785:14833   */\n      mstore\n        /* \"#utility.yul\":14850:14928   */\n      tag_306\n        /* \"#utility.yul\":14923:14927   */\n      dup2\n        /* \"#utility.yul\":14914:14920   */\n      dup5\n        /* \"#utility.yul\":14850:14928   */\n      tag_130\n      jump\t// in\n    tag_306:\n        /* \"#utility.yul\":14842:14928   */\n      swap1\n      pop\n        /* \"#utility.yul\":14427:14935   */\n      swap4\n      swap3\n      pop\n      pop\n      pop\n      jump\t// out\n\n    auxdata: 0xa2646970667358221220d51a8f0aa3553930307806760fc28443ee71d8d43b62c5234f91814ae38560c964736f6c634300080d0033\n}\n",
				"bytecode": {
					"linkReferences": {},
					"object": "608060405234801561001057600080fd5b5033600160006101000a81548173ffffffffffffffffffffffffffffffffffffffff021916908373ffffffffffffffffffffffffffffffffffffffff1602179055506001600260003373ffffffffffffffffffffffffffffffffffffffff1673ffffffffffffffffffffffffffffffffffffffff16815260200190815260200160002060006101000a81548160ff02191690831515021790555061101a806100b96000396000f3fe608060405234801561001057600080fd5b50600436106100885760003560e01c80638da5cb5b1161005b5780638da5cb5b14610139578063b682000214610157578063ca6d56dc14610173578063d03d58491461018f57610088565b80630bf803e41461008d5780631a3cd59a146100bd5780631f81595d146100ed578063372c12b114610109575b600080fd5b6100a760048036038101906100a29190610959565b6101ad565b6040516100b491906109bb565b60405180910390f35b6100d760048036038101906100d29190610a02565b610297565b6040516100e49190610ab7565b60405180910390f35b61010760048036038101906101029190610b37565b610347565b005b610123600480360381019061011e9190610b37565b610432565b6040516101309190610b7f565b60405180910390f35b610141610452565b60405161014e9190610ba9565b60405180910390f35b610171600480360381019061016c9190610bc4565b610478565b005b61018d60048036038101906101889190610b37565b610598565b005b610197610683565b6040516101a49190610d2c565b60405180910390f35b600060011515600260003373ffffffffffffffffffffffffffffffffffffffff1673ffffffffffffffffffffffffffffffffffffffff16815260200190815260200160002060009054906101000a900460ff16151514610242576040517f08c379a000000000000000000000000000000000000000000000000000000000815260040161023990610d9a565b60405180910390fd5b60008290806001815401808255809150506001900390600052602060002001600090919091909150908051906020019061027d92919061075c565b5060016000805490506102909190610de9565b9050919050565b6060600082815481106102ad576102ac610e1d565b5b9060005260206000200180546102c290610e7b565b80601f01602080910402602001604051908101604052809291908181526020018280546102ee90610e7b565b801561033b5780601f106103105761010080835404028352916020019161033b565b820191906000526020600020905b81548152906001019060200180831161031e57829003601f168201915b50505050509050919050565b600160009054906101000a900473ffffffffffffffffffffffffffffffffffffffff1673ffffffffffffffffffffffffffffffffffffffff163373ffffffffffffffffffffffffffffffffffffffff16146103d7576040517f08c379a00000000000000000000000000000000000000000000000000000000081526004016103ce90610ef8565b60405180910390fd5b6000600260008373ffffffffffffffffffffffffffffffffffffffff1673ffffffffffffffffffffffffffffffffffffffff16815260200190815260200160002060006101000a81548160ff02191690831515021790555050565b60026020528060005260406000206000915054906101000a900460ff1681565b600160009054906101000a900473ffffffffffffffffffffffffffffffffffffffff1681565b60011515600260003373ffffffffffffffffffffffffffffffffffffffff1673ffffffffffffffffffffffffffffffffffffffff16815260200190815260200160002060009054906101000a900460ff1615151461050b576040517f08c379a000000000000000000000000000000000000000000000000000000000815260040161050290610d9a565b60405180910390fd5b7f305058d54db6daf26994cd687b168a24cdd9a7201462f1659782c4e429987992600083815481106105405761053f610e1d565b5b9060005260206000200182604051610559929190610fad565b60405180910390a1806000838154811061057657610575610e1d565b5b90600052602060002001908051906020019061059392919061075c565b505050565b600160009054906101000a900473ffffffffffffffffffffffffffffffffffffffff1673ffffffffffffffffffffffffffffffffffffffff163373ffffffffffffffffffffffffffffffffffffffff1614610628576040517f08c379a000000000000000000000000000000000000000000000000000000000815260040161061f90610ef8565b60405180910390fd5b6001600260008373ffffffffffffffffffffffffffffffffffffffff1673ffffffffffffffffffffffffffffffffffffffff16815260200190815260200160002060006101000a81548160ff02191690831515021790555050565b60606000805480602002602001604051908101604052809291908181526020016000905b828210156107535783829060005260206000200180546106c690610e7b565b80601f01602080910402602001604051908101604052809291908181526020018280546106f290610e7b565b801561073f5780601f106107145761010080835404028352916020019161073f565b820191906000526020600020905b81548152906001019060200180831161072257829003601f168201915b5050505050815260200190600101906106a7565b50505050905090565b82805461076890610e7b565b90600052602060002090601f01602090048101928261078a57600085556107d1565b82601f106107a357805160ff19168380011785556107d1565b828001600101855582156107d1579182015b828111156107d05782518255916020019190600101906107b5565b5b5090506107de91906107e2565b5090565b5b808211156107fb5760008160009055506001016107e3565b5090565b6000604051905090565b600080fd5b600080fd5b600080fd5b600080fd5b6000601f19601f8301169050919050565b7f4e487b7100000000000000000000000000000000000000000000000000000000600052604160045260246000fd5b6108668261081d565b810181811067ffffffffffffffff821117156108855761088461082e565b5b80604052505050565b60006108986107ff565b90506108a4828261085d565b919050565b600067ffffffffffffffff8211156108c4576108c361082e565b5b6108cd8261081d565b9050602081019050919050565b82818337600083830152505050565b60006108fc6108f7846108a9565b61088e565b90508281526020810184848401111561091857610917610818565b5b6109238482856108da565b509392505050565b600082601f8301126109405761093f610813565b5b81356109508482602086016108e9565b91505092915050565b60006020828403121561096f5761096e610809565b5b600082013567ffffffffffffffff81111561098d5761098c61080e565b5b6109998482850161092b565b91505092915050565b6000819050919050565b6109b5816109a2565b82525050565b60006020820190506109d060008301846109ac565b92915050565b6109df816109a2565b81146109ea57600080fd5b50565b6000813590506109fc816109d6565b92915050565b600060208284031215610a1857610a17610809565b5b6000610a26848285016109ed565b91505092915050565b600081519050919050565b600082825260208201905092915050565b60005b83811015610a69578082015181840152602081019050610a4e565b83811115610a78576000848401525b50505050565b6000610a8982610a2f565b610a938185610a3a565b9350610aa3818560208601610a4b565b610aac8161081d565b840191505092915050565b60006020820190508181036000830152610ad18184610a7e565b905092915050565b600073ffffffffffffffffffffffffffffffffffffffff82169050919050565b6000610b0482610ad9565b9050919050565b610b1481610af9565b8114610b1f57600080fd5b50565b600081359050610b3181610b0b565b92915050565b600060208284031215610b4d57610b4c610809565b5b6000610b5b84828501610b22565b91505092915050565b60008115159050919050565b610b7981610b64565b82525050565b6000602082019050610b946000830184610b70565b92915050565b610ba381610af9565b82525050565b6000602082019050610bbe6000830184610b9a565b92915050565b60008060408385031215610bdb57610bda610809565b5b6000610be9858286016109ed565b925050602083013567ffffffffffffffff811115610c0a57610c0961080e565b5b610c168582860161092b565b9150509250929050565b600081519050919050565b600082825260208201905092915050565b6000819050602082019050919050565b600082825260208201905092915050565b6000610c6882610a2f565b610c728185610c4c565b9350610c82818560208601610a4b565b610c8b8161081d565b840191505092915050565b6000610ca28383610c5d565b905092915050565b6000602082019050919050565b6000610cc282610c20565b610ccc8185610c2b565b935083602082028501610cde85610c3c565b8060005b85811015610d1a5784840389528151610cfb8582610c96565b9450610d0683610caa565b925060208a01995050600181019050610ce2565b50829750879550505050505092915050565b60006020820190508181036000830152610d468184610cb7565b905092915050565b7f4f6e6c792077686974656c697374000000000000000000000000000000000000600082015250565b6000610d84600e83610a3a565b9150610d8f82610d4e565b602082019050919050565b60006020820190508181036000830152610db381610d77565b9050919050565b7f4e487b7100000000000000000000000000000000000000000000000000000000600052601160045260246000fd5b6000610df4826109a2565b9150610dff836109a2565b925082821015610e1257610e11610dba565b5b828203905092915050565b7f4e487b7100000000000000000000000000000000000000000000000000000000600052603260045260246000fd5b7f4e487b7100000000000000000000000000000000000000000000000000000000600052602260045260246000fd5b60006002820490506001821680610e9357607f821691505b602082108103610ea657610ea5610e4c565b5b50919050565b7f4f6e6c79206f776e657200000000000000000000000000000000000000000000600082015250565b6000610ee2600a83610a3a565b9150610eed82610eac565b602082019050919050565b60006020820190508181036000830152610f1181610ed5565b9050919050565b60008190508160005260206000209050919050565b60008154610f3a81610e7b565b610f448186610a3a565b94506001821660008114610f5f5760018114610f7157610fa4565b60ff1983168652602086019350610fa4565b610f7a85610f18565b60005b83811015610f9c57815481890152600182019150602081019050610f7d565b808801955050505b50505092915050565b60006040820190508181036000830152610fc78185610f2d565b90508181036020830152610fdb8184610a7e565b9050939250505056fea2646970667358221220d51a8f0aa3553930307806760fc28443ee71d8d43b62c5234f91814ae38560c964736f6c634300080d0033",
					"opcodes": "PUSH1 0x80 PUSH1 0x40 MSTORE CALLVALUE DUP1 ISZERO PUSH2 0x10 JUMPI PUSH1 0x0 DUP1 REVERT JUMPDEST POP CALLER PUSH1 0x1 PUSH1 0x0 PUSH2 0x100 EXP DUP2 SLOAD DUP2 PUSH20 0xFFFFFFFFFFFFFFFFFFFFFFFFFFFFFFFFFFFFFFFF MUL NOT AND SWAP1 DUP4 PUSH20 0xFFFFFFFFFFFFFFFFFFFFFFFFFFFFFFFFFFFFFFFF AND MUL OR SWAP1 SSTORE POP PUSH1 0x1 PUSH1 0x2 PUSH1 0x0 CALLER PUSH20 0xFFFFFFFFFFFFFFFFFFFFFFFFFFFFFFFFFFFFFFFF AND PUSH20 0xFFFFFFFFFFFFFFFFFFFFFFFFFFFFFFFFFFFFFFFF AND DUP2 MSTORE PUSH1 0x20 ADD SWAP1 DUP2 MSTORE PUSH1 0x20 ADD PUSH1 0x0 KECCAK256 PUSH1 0x0 PUSH2 0x100 EXP DUP2 SLOAD DUP2 PUSH1 0xFF MUL NOT AND SWAP1 DUP4 ISZERO ISZERO MUL OR SWAP1 SSTORE POP PUSH2 0x101A DUP1 PUSH2 0xB9 PUSH1 0x0 CODECOPY PUSH1 0x0 RETURN INVALID PUSH1 0x80 PUSH1 0x40 MSTORE CALLVALUE DUP1 ISZERO PUSH2 0x10 JUMPI PUSH1 0x0 DUP1 REVERT JUMPDEST POP PUSH1 0x4 CALLDATASIZE LT PUSH2 0x88 JUMPI PUSH1 0x0 CALLDATALOAD PUSH1 0xE0 SHR DUP1 PUSH4 0x8DA5CB5B GT PUSH2 0x5B JUMPI DUP1 PUSH4 0x8DA5CB5B EQ PUSH2 0x139 JUMPI DUP1 PUSH4 0xB6820002 EQ PUSH2 0x157 JUMPI DUP1 PUSH4 0xCA6D56DC EQ PUSH2 0x173 JUMPI DUP1 PUSH4 0xD03D5849 EQ PUSH2 0x18F JUMPI PUSH2 0x88 JUMP JUMPDEST DUP1 PUSH4 0xBF803E4 EQ PUSH2 0x8D JUMPI DUP1 PUSH4 0x1A3CD59A EQ PUSH2 0xBD JUMPI DUP1 PUSH4 0x1F81595D EQ PUSH2 0xED JUMPI DUP1 PUSH4 0x372C12B1 EQ PUSH2 0x109 JUMPI JUMPDEST PUSH1 0x0 DUP1 REVERT JUMPDEST PUSH2 0xA7 PUSH1 0x4 DUP1 CALLDATASIZE SUB DUP2 ADD SWAP1 PUSH2 0xA2 SWAP2 SWAP1 PUSH2 0x959 JUMP JUMPDEST PUSH2 0x1AD JUMP JUMPDEST PUSH1 0x40 MLOAD PUSH2 0xB4 SWAP2 SWAP1 PUSH2 0x9BB JUMP JUMPDEST PUSH1 0x40 MLOAD DUP1 SWAP2 SUB SWAP1 RETURN JUMPDEST PUSH2 0xD7 PUSH1 0x4 DUP1 CALLDATASIZE SUB DUP2 ADD SWAP1 PUSH2 0xD2 SWAP2 SWAP1 PUSH2 0xA02 JUMP JUMPDEST PUSH2 0x297 JUMP JUMPDEST PUSH1 0x40 MLOAD PUSH2 0xE4 SWAP2 SWAP1 PUSH2 0xAB7 JUMP JUMPDEST PUSH1 0x40 MLOAD DUP1 SWAP2 SUB SWAP1 RETURN JUMPDEST PUSH2 0x107 PUSH1 0x4 DUP1 CALLDATASIZE SUB DUP2 ADD SWAP1 PUSH2 0x102 SWAP2 SWAP1 PUSH2 0xB37 JUMP JUMPDEST PUSH2 0x347 JUMP JUMPDEST STOP JUMPDEST PUSH2 0x123 PUSH1 0x4 DUP1 CALLDATASIZE SUB DUP2 ADD SWAP1 PUSH2 0x11E SWAP2 SWAP1 PUSH2 0xB37 JUMP JUMPDEST PUSH2 0x432 JUMP JUMPDEST PUSH1 0x40 MLOAD PUSH2 0x130 SWAP2 SWAP1 PUSH2 0xB7F JUMP JUMPDEST PUSH1 0x40 MLOAD DUP1 SWAP2 SUB SWAP1 RETURN JUMPDEST PUSH2 0x141 PUSH2 0x452 JUMP JUMPDEST PUSH1 0x40 MLOAD PUSH2 0x14E SWAP2 SWAP1 PUSH2 0xBA9 JUMP JUMPDEST PUSH1 0x40 MLOAD DUP1 SWAP2 SUB SWAP1 RETURN JUMPDEST PUSH2 0x171 PUSH1 0x4 DUP1 CALLDATASIZE SUB DUP2 ADD SWAP1 PUSH2 0x16C SWAP2 SWAP1 PUSH2 0xBC4 JUMP JUMPDEST PUSH2 0x478 JUMP JUMPDEST STOP JUMPDEST PUSH2 0x18D PUSH1 0x4 DUP1 CALLDATASIZE SUB DUP2 ADD SWAP1 PUSH2 0x188 SWAP2 SWAP1 PUSH2 0xB37 JUMP JUMPDEST PUSH2 0x598 JUMP JUMPDEST STOP JUMPDEST PUSH2 0x197 PUSH2 0x683 JUMP JUMPDEST PUSH1 0x40 MLOAD PUSH2 0x1A4 SWAP2 SWAP1 PUSH2 0xD2C JUMP JUMPDEST PUSH1 0x40 MLOAD DUP1 SWAP2 SUB SWAP1 RETURN JUMPDEST PUSH1 0x0 PUSH1 0x1 ISZERO ISZERO PUSH1 0x2 PUSH1 0x0 CALLER PUSH20 0xFFFFFFFFFFFFFFFFFFFFFFFFFFFFFFFFFFFFFFFF AND PUSH20 0xFFFFFFFFFFFFFFFFFFFFFFFFFFFFFFFFFFFFFFFF AND DUP2 MSTORE PUSH1 0x20 ADD SWAP1 DUP2 MSTORE PUSH1 0x20 ADD PUSH1 0x0 KECCAK256 PUSH1 0x0 SWAP1 SLOAD SWAP1 PUSH2 0x100 EXP SWAP1 DIV PUSH1 0xFF AND ISZERO ISZERO EQ PUSH2 0x242 JUMPI PUSH1 0x40 MLOAD PUSH32 0x8C379A000000000000000000000000000000000000000000000000000000000 DUP2 MSTORE PUSH1 0x4 ADD PUSH2 0x239 SWAP1 PUSH2 0xD9A JUMP JUMPDEST PUSH1 0x40 MLOAD DUP1 SWAP2 SUB SWAP1 REVERT JUMPDEST PUSH1 0x0 DUP3 SWAP1 DUP1 PUSH1 0x1 DUP2 SLOAD ADD DUP1 DUP3 SSTORE DUP1 SWAP2 POP POP PUSH1 0x1 SWAP1 SUB SWAP1 PUSH1 0x0 MSTORE PUSH1 0x20 PUSH1 0x0 KECCAK256 ADD PUSH1 0x0 SWAP1 SWAP2 SWAP1 SWAP2 SWAP1 SWAP2 POP SWAP1 DUP1 MLOAD SWAP1 PUSH1 0x20 ADD SWAP1 PUSH2 0x27D SWAP3 SWAP2 SWAP1 PUSH2 0x75C JUMP JUMPDEST POP PUSH1 0x1 PUSH1 0x0 DUP1 SLOAD SWAP1 POP PUSH2 0x290 SWAP2 SWAP1 PUSH2 0xDE9 JUMP JUMPDEST SWAP1 POP SWAP2 SWAP1 POP JUMP JUMPDEST PUSH1 0x60 PUSH1 0x0 DUP3 DUP2 SLOAD DUP2 LT PUSH2 0x2AD JUMPI PUSH2 0x2AC PUSH2 0xE1D JUMP JUMPDEST JUMPDEST SWAP1 PUSH1 0x0 MSTORE PUSH1 0x20 PUSH1 0x0 KECCAK256 ADD DUP1 SLOAD PUSH2 0x2C2 SWAP1 PUSH2 0xE7B JUMP JUMPDEST DUP1 PUSH1 0x1F ADD PUSH1 0x20 DUP1 SWAP2 DIV MUL PUSH1 0x20 ADD PUSH1 0x40 MLOAD SWAP1 DUP2 ADD PUSH1 0x40 MSTORE DUP1 SWAP3 SWAP2 SWAP1 DUP2 DUP2 MSTORE PUSH1 0x20 ADD DUP3 DUP1 SLOAD PUSH2 0x2EE SWAP1 PUSH2 0xE7B JUMP JUMPDEST DUP1 ISZERO PUSH2 0x33B JUMPI DUP1 PUSH1 0x1F LT PUSH2 0x310 JUMPI PUSH2 0x100 DUP1 DUP4 SLOAD DIV MUL DUP4 MSTORE SWAP2 PUSH1 0x20 ADD SWAP2 PUSH2 0x33B JUMP JUMPDEST DUP3 ADD SWAP2 SWAP1 PUSH1 0x0 MSTORE PUSH1 0x20 PUSH1 0x0 KECCAK256 SWAP1 JUMPDEST DUP2 SLOAD DUP2 MSTORE SWAP1 PUSH1 0x1 ADD SWAP1 PUSH1 0x20 ADD DUP1 DUP4 GT PUSH2 0x31E JUMPI DUP3 SWAP1 SUB PUSH1 0x1F AND DUP3 ADD SWAP2 JUMPDEST POP POP POP POP POP SWAP1 POP SWAP2 SWAP1 POP JUMP JUMPDEST PUSH1 0x1 PUSH1 0x0 SWAP1 SLOAD SWAP1 PUSH2 0x100 EXP SWAP1 DIV PUSH20 0xFFFFFFFFFFFFFFFFFFFFFFFFFFFFFFFFFFFFFFFF AND PUSH20 0xFFFFFFFFFFFFFFFFFFFFFFFFFFFFFFFFFFFFFFFF AND CALLER PUSH20 0xFFFFFFFFFFFFFFFFFFFFFFFFFFFFFFFFFFFFFFFF AND EQ PUSH2 0x3D7 JUMPI PUSH1 0x40 MLOAD PUSH32 0x8C379A000000000000000000000000000000000000000000000000000000000 DUP2 MSTORE PUSH1 0x4 ADD PUSH2 0x3CE SWAP1 PUSH2 0xEF8 JUMP JUMPDEST PUSH1 0x40 MLOAD DUP1 SWAP2 SUB SWAP1 REVERT JUMPDEST PUSH1 0x0 PUSH1 0x2 PUSH1 0x0 DUP4 PUSH20 0xFFFFFFFFFFFFFFFFFFFFFFFFFFFFFFFFFFFFFFFF AND PUSH20 0xFFFFFFFFFFFFFFFFFFFFFFFFFFFFFFFFFFFFFFFF AND DUP2 MSTORE PUSH1 0x20 ADD SWAP1 DUP2 MSTORE PUSH1 0x20 ADD PUSH1 0x0 KECCAK256 PUSH1 0x0 PUSH2 0x100 EXP DUP2 SLOAD DUP2 PUSH1 0xFF MUL NOT AND SWAP1 DUP4 ISZERO ISZERO MUL OR SWAP1 SSTORE POP POP JUMP JUMPDEST PUSH1 0x2 PUSH1 0x20 MSTORE DUP1 PUSH1 0x0 MSTORE PUSH1 0x40 PUSH1 0x0 KECCAK256 PUSH1 0x0 SWAP2 POP SLOAD SWAP1 PUSH2 0x100 EXP SWAP1 DIV PUSH1 0xFF AND DUP2 JUMP JUMPDEST PUSH1 0x1 PUSH1 0x0 SWAP1 SLOAD SWAP1 PUSH2 0x100 EXP SWAP1 DIV PUSH20 0xFFFFFFFFFFFFFFFFFFFFFFFFFFFFFFFFFFFFFFFF AND DUP2 JUMP JUMPDEST PUSH1 0x1 ISZERO ISZERO PUSH1 0x2 PUSH1 0x0 CALLER PUSH20 0xFFFFFFFFFFFFFFFFFFFFFFFFFFFFFFFFFFFFFFFF AND PUSH20 0xFFFFFFFFFFFFFFFFFFFFFFFFFFFFFFFFFFFFFFFF AND DUP2 MSTORE PUSH1 0x20 ADD SWAP1 DUP2 MSTORE PUSH1 0x20 ADD PUSH1 0x0 KECCAK256 PUSH1 0x0 SWAP1 SLOAD SWAP1 PUSH2 0x100 EXP SWAP1 DIV PUSH1 0xFF AND ISZERO ISZERO EQ PUSH2 0x50B JUMPI PUSH1 0x40 MLOAD PUSH32 0x8C379A000000000000000000000000000000000000000000000000000000000 DUP2 MSTORE PUSH1 0x4 ADD PUSH2 0x502 SWAP1 PUSH2 0xD9A JUMP JUMPDEST PUSH1 0x40 MLOAD DUP1 SWAP2 SUB SWAP1 REVERT JUMPDEST PUSH32 0x305058D54DB6DAF26994CD687B168A24CDD9A7201462F1659782C4E429987992 PUSH1 0x0 DUP4 DUP2 SLOAD DUP2 LT PUSH2 0x540 JUMPI PUSH2 0x53F PUSH2 0xE1D JUMP JUMPDEST JUMPDEST SWAP1 PUSH1 0x0 MSTORE PUSH1 0x20 PUSH1 0x0 KECCAK256 ADD DUP3 PUSH1 0x40 MLOAD PUSH2 0x559 SWAP3 SWAP2 SWAP1 PUSH2 0xFAD JUMP JUMPDEST PUSH1 0x40 MLOAD DUP1 SWAP2 SUB SWAP1 LOG1 DUP1 PUSH1 0x0 DUP4 DUP2 SLOAD DUP2 LT PUSH2 0x576 JUMPI PUSH2 0x575 PUSH2 0xE1D JUMP JUMPDEST JUMPDEST SWAP1 PUSH1 0x0 MSTORE PUSH1 0x20 PUSH1 0x0 KECCAK256 ADD SWAP1 DUP1 MLOAD SWAP1 PUSH1 0x20 ADD SWAP1 PUSH2 0x593 SWAP3 SWAP2 SWAP1 PUSH2 0x75C JUMP JUMPDEST POP POP POP JUMP JUMPDEST PUSH1 0x1 PUSH1 0x0 SWAP1 SLOAD SWAP1 PUSH2 0x100 EXP SWAP1 DIV PUSH20 0xFFFFFFFFFFFFFFFFFFFFFFFFFFFFFFFFFFFFFFFF AND PUSH20 0xFFFFFFFFFFFFFFFFFFFFFFFFFFFFFFFFFFFFFFFF AND CALLER PUSH20 0xFFFFFFFFFFFFFFFFFFFFFFFFFFFFFFFFFFFFFFFF AND EQ PUSH2 0x628 JUMPI PUSH1 0x40 MLOAD PUSH32 0x8C379A000000000000000000000000000000000000000000000000000000000 DUP2 MSTORE PUSH1 0x4 ADD PUSH2 0x61F SWAP1 PUSH2 0xEF8 JUMP JUMPDEST PUSH1 0x40 MLOAD DUP1 SWAP2 SUB SWAP1 REVERT JUMPDEST PUSH1 0x1 PUSH1 0x2 PUSH1 0x0 DUP4 PUSH20 0xFFFFFFFFFFFFFFFFFFFFFFFFFFFFFFFFFFFFFFFF AND PUSH20 0xFFFFFFFFFFFFFFFFFFFFFFFFFFFFFFFFFFFFFFFF AND DUP2 MSTORE PUSH1 0x20 ADD SWAP1 DUP2 MSTORE PUSH1 0x20 ADD PUSH1 0x0 KECCAK256 PUSH1 0x0 PUSH2 0x100 EXP DUP2 SLOAD DUP2 PUSH1 0xFF MUL NOT AND SWAP1 DUP4 ISZERO ISZERO MUL OR SWAP1 SSTORE POP POP JUMP JUMPDEST PUSH1 0x60 PUSH1 0x0 DUP1 SLOAD DUP1 PUSH1 0x20 MUL PUSH1 0x20 ADD PUSH1 0x40 MLOAD SWAP1 DUP2 ADD PUSH1 0x40 MSTORE DUP1 SWAP3 SWAP2 SWAP1 DUP2 DUP2 MSTORE PUSH1 0x20 ADD PUSH1 0x0 SWAP1 JUMPDEST DUP3 DUP3 LT ISZERO PUSH2 0x753 JUMPI DUP4 DUP3 SWAP1 PUSH1 0x0 MSTORE PUSH1 0x20 PUSH1 0x0 KECCAK256 ADD DUP1 SLOAD PUSH2 0x6C6 SWAP1 PUSH2 0xE7B JUMP JUMPDEST DUP1 PUSH1 0x1F ADD PUSH1 0x20 DUP1 SWAP2 DIV MUL PUSH1 0x20 ADD PUSH1 0x40 MLOAD SWAP1 DUP2 ADD PUSH1 0x40 MSTORE DUP1 SWAP3 SWAP2 SWAP1 DUP2 DUP2 MSTORE PUSH1 0x20 ADD DUP3 DUP1 SLOAD PUSH2 0x6F2 SWAP1 PUSH2 0xE7B JUMP JUMPDEST DUP1 ISZERO PUSH2 0x73F JUMPI DUP1 PUSH1 0x1F LT PUSH2 0x714 JUMPI PUSH2 0x100 DUP1 DUP4 SLOAD DIV MUL DUP4 MSTORE SWAP2 PUSH1 0x20 ADD SWAP2 PUSH2 0x73F JUMP JUMPDEST DUP3 ADD SWAP2 SWAP1 PUSH1 0x0 MSTORE PUSH1 0x20 PUSH1 0x0 KECCAK256 SWAP1 JUMPDEST DUP2 SLOAD DUP2 MSTORE SWAP1 PUSH1 0x1 ADD SWAP1 PUSH1 0x20 ADD DUP1 DUP4 GT PUSH2 0x722 JUMPI DUP3 SWAP1 SUB PUSH1 0x1F AND DUP3 ADD SWAP2 JUMPDEST POP POP POP POP POP DUP2 MSTORE PUSH1 0x20 ADD SWAP1 PUSH1 0x1 ADD SWAP1 PUSH2 0x6A7 JUMP JUMPDEST POP POP POP POP SWAP1 POP SWAP1 JUMP JUMPDEST DUP3 DUP1 SLOAD PUSH2 0x768 SWAP1 PUSH2 0xE7B JUMP JUMPDEST SWAP1 PUSH1 0x0 MSTORE PUSH1 0x20 PUSH1 0x0 KECCAK256 SWAP1 PUSH1 0x1F ADD PUSH1 0x20 SWAP1 DIV DUP2 ADD SWAP3 DUP3 PUSH2 0x78A JUMPI PUSH1 0x0 DUP6 SSTORE PUSH2 0x7D1 JUMP JUMPDEST DUP3 PUSH1 0x1F LT PUSH2 0x7A3 JUMPI DUP1 MLOAD PUSH1 0xFF NOT AND DUP4 DUP1 ADD OR DUP6 SSTORE PUSH2 0x7D1 JUMP JUMPDEST DUP3 DUP1 ADD PUSH1 0x1 ADD DUP6 SSTORE DUP3 ISZERO PUSH2 0x7D1 JUMPI SWAP2 DUP3 ADD JUMPDEST DUP3 DUP2 GT ISZERO PUSH2 0x7D0 JUMPI DUP3 MLOAD DUP3 SSTORE SWAP2 PUSH1 0x20 ADD SWAP2 SWAP1 PUSH1 0x1 ADD SWAP1 PUSH2 0x7B5 JUMP JUMPDEST JUMPDEST POP SWAP1 POP PUSH2 0x7DE SWAP2 SWAP1 PUSH2 0x7E2 JUMP JUMPDEST POP SWAP1 JUMP JUMPDEST JUMPDEST DUP1 DUP3 GT ISZERO PUSH2 0x7FB JUMPI PUSH1 0x0 DUP2 PUSH1 0x0 SWAP1 SSTORE POP PUSH1 0x1 ADD PUSH2 0x7E3 JUMP JUMPDEST POP SWAP1 JUMP JUMPDEST PUSH1 0x0 PUSH1 0x40 MLOAD SWAP1 POP SWAP1 JUMP JUMPDEST PUSH1 0x0 DUP1 REVERT JUMPDEST PUSH1 0x0 DUP1 REVERT JUMPDEST PUSH1 0x0 DUP1 REVERT JUMPDEST PUSH1 0x0 DUP1 REVERT JUMPDEST PUSH1 0x0 PUSH1 0x1F NOT PUSH1 0x1F DUP4 ADD AND SWAP1 POP SWAP2 SWAP1 POP JUMP JUMPDEST PUSH32 0x4E487B7100000000000000000000000000000000000000000000000000000000 PUSH1 0x0 MSTORE PUSH1 0x41 PUSH1 0x4 MSTORE PUSH1 0x24 PUSH1 0x0 REVERT JUMPDEST PUSH2 0x866 DUP3 PUSH2 0x81D JUMP JUMPDEST DUP2 ADD DUP2 DUP2 LT PUSH8 0xFFFFFFFFFFFFFFFF DUP3 GT OR ISZERO PUSH2 0x885 JUMPI PUSH2 0x884 PUSH2 0x82E JUMP JUMPDEST JUMPDEST DUP1 PUSH1 0x40 MSTORE POP POP POP JUMP JUMPDEST PUSH1 0x0 PUSH2 0x898 PUSH2 0x7FF JUMP JUMPDEST SWAP1 POP PUSH2 0x8A4 DUP3 DUP3 PUSH2 0x85D JUMP JUMPDEST SWAP2 SWAP1 POP JUMP JUMPDEST PUSH1 0x0 PUSH8 0xFFFFFFFFFFFFFFFF DUP3 GT ISZERO PUSH2 0x8C4 JUMPI PUSH2 0x8C3 PUSH2 0x82E JUMP JUMPDEST JUMPDEST PUSH2 0x8CD DUP3 PUSH2 0x81D JUMP JUMPDEST SWAP1 POP PUSH1 0x20 DUP2 ADD SWAP1 POP SWAP2 SWAP1 POP JUMP JUMPDEST DUP3 DUP2 DUP4 CALLDATACOPY PUSH1 0x0 DUP4 DUP4 ADD MSTORE POP POP POP JUMP JUMPDEST PUSH1 0x0 PUSH2 0x8FC PUSH2 0x8F7 DUP5 PUSH2 0x8A9 JUMP JUMPDEST PUSH2 0x88E JUMP JUMPDEST SWAP1 POP DUP3 DUP2 MSTORE PUSH1 0x20 DUP2 ADD DUP5 DUP5 DUP5 ADD GT ISZERO PUSH2 0x918 JUMPI PUSH2 0x917 PUSH2 0x818 JUMP JUMPDEST JUMPDEST PUSH2 0x923 DUP5 DUP3 DUP6 PUSH2 0x8DA JUMP JUMPDEST POP SWAP4 SWAP3 POP POP POP JUMP JUMPDEST PUSH1 0x0 DUP3 PUSH1 0x1F DUP4 ADD SLT PUSH2 0x940 JUMPI PUSH2 0x93F PUSH2 0x813 JUMP JUMPDEST JUMPDEST DUP2 CALLDATALOAD PUSH2 0x950 DUP5 DUP3 PUSH1 0x20 DUP7 ADD PUSH2 0x8E9 JUMP JUMPDEST SWAP2 POP POP SWAP3 SWAP2 POP POP JUMP JUMPDEST PUSH1 0x0 PUSH1 0x20 DUP3 DUP5 SUB SLT ISZERO PUSH2 0x96F JUMPI PUSH2 0x96E PUSH2 0x809 JUMP JUMPDEST JUMPDEST PUSH1 0x0 DUP3 ADD CALLDATALOAD PUSH8 0xFFFFFFFFFFFFFFFF DUP2 GT ISZERO PUSH2 0x98D JUMPI PUSH2 0x98C PUSH2 0x80E JUMP JUMPDEST JUMPDEST PUSH2 0x999 DUP5 DUP3 DUP6 ADD PUSH2 0x92B JUMP JUMPDEST SWAP2 POP POP SWAP3 SWAP2 POP POP JUMP JUMPDEST PUSH1 0x0 DUP2 SWAP1 POP SWAP2 SWAP1 POP JUMP JUMPDEST PUSH2 0x9B5 DUP2 PUSH2 0x9A2 JUMP JUMPDEST DUP3 MSTORE POP POP JUMP JUMPDEST PUSH1 0x0 PUSH1 0x20 DUP3 ADD SWAP1 POP PUSH2 0x9D0 PUSH1 0x0 DUP4 ADD DUP5 PUSH2 0x9AC JUMP JUMPDEST SWAP3 SWAP2 POP POP JUMP JUMPDEST PUSH2 0x9DF DUP2 PUSH2 0x9A2 JUMP JUMPDEST DUP2 EQ PUSH2 0x9EA JUMPI PUSH1 0x0 DUP1 REVERT JUMPDEST POP JUMP JUMPDEST PUSH1 0x0 DUP2 CALLDATALOAD SWAP1 POP PUSH2 0x9FC DUP2 PUSH2 0x9D6 JUMP JUMPDEST SWAP3 SWAP2 POP POP JUMP JUMPDEST PUSH1 0x0 PUSH1 0x20 DUP3 DUP5 SUB SLT ISZERO PUSH2 0xA18 JUMPI PUSH2 0xA17 PUSH2 0x809 JUMP JUMPDEST JUMPDEST PUSH1 0x0 PUSH2 0xA26 DUP5 DUP3 DUP6 ADD PUSH2 0x9ED JUMP JUMPDEST SWAP2 POP POP SWAP3 SWAP2 POP POP JUMP JUMPDEST PUSH1 0x0 DUP2 MLOAD SWAP1 POP SWAP2 SWAP1 POP JUMP JUMPDEST PUSH1 0x0 DUP3 DUP3 MSTORE PUSH1 0x20 DUP3 ADD SWAP1 POP SWAP3 SWAP2 POP POP JUMP JUMPDEST PUSH1 0x0 JUMPDEST DUP4 DUP2 LT ISZERO PUSH2 0xA69 JUMPI DUP1 DUP3 ADD MLOAD DUP2 DUP5 ADD MSTORE PUSH1 0x20 DUP2 ADD SWAP1 POP PUSH2 0xA4E JUMP JUMPDEST DUP4 DUP2 GT ISZERO PUSH2 0xA78 JUMPI PUSH1 0x0 DUP5 DUP5 ADD MSTORE JUMPDEST POP POP POP POP JUMP JUMPDEST PUSH1 0x0 PUSH2 0xA89 DUP3 PUSH2 0xA2F JUMP JUMPDEST PUSH2 0xA93 DUP2 DUP6 PUSH2 0xA3A JUMP JUMPDEST SWAP4 POP PUSH2 0xAA3 DUP2 DUP6 PUSH1 0x20 DUP7 ADD PUSH2 0xA4B JUMP JUMPDEST PUSH2 0xAAC DUP2 PUSH2 0x81D JUMP JUMPDEST DUP5 ADD SWAP2 POP POP SWAP3 SWAP2 POP POP JUMP JUMPDEST PUSH1 0x0 PUSH1 0x20 DUP3 ADD SWAP1 POP DUP2 DUP2 SUB PUSH1 0x0 DUP4 ADD MSTORE PUSH2 0xAD1 DUP2 DUP5 PUSH2 0xA7E JUMP JUMPDEST SWAP1 POP SWAP3 SWAP2 POP POP JUMP JUMPDEST PUSH1 0x0 PUSH20 0xFFFFFFFFFFFFFFFFFFFFFFFFFFFFFFFFFFFFFFFF DUP3 AND SWAP1 POP SWAP2 SWAP1 POP JUMP JUMPDEST PUSH1 0x0 PUSH2 0xB04 DUP3 PUSH2 0xAD9 JUMP JUMPDEST SWAP1 POP SWAP2 SWAP1 POP JUMP JUMPDEST PUSH2 0xB14 DUP2 PUSH2 0xAF9 JUMP JUMPDEST DUP2 EQ PUSH2 0xB1F JUMPI PUSH1 0x0 DUP1 REVERT JUMPDEST POP JUMP JUMPDEST PUSH1 0x0 DUP2 CALLDATALOAD SWAP1 POP PUSH2 0xB31 DUP2 PUSH2 0xB0B JUMP JUMPDEST SWAP3 SWAP2 POP POP JUMP JUMPDEST PUSH1 0x0 PUSH1 0x20 DUP3 DUP5 SUB SLT ISZERO PUSH2 0xB4D JUMPI PUSH2 0xB4C PUSH2 0x809 JUMP JUMPDEST JUMPDEST PUSH1 0x0 PUSH2 0xB5B DUP5 DUP3 DUP6 ADD PUSH2 0xB22 JUMP JUMPDEST SWAP2 POP POP SWAP3 SWAP2 POP POP JUMP JUMPDEST PUSH1 0x0 DUP2 ISZERO ISZERO SWAP1 POP SWAP2 SWAP1 POP JUMP JUMPDEST PUSH2 0xB79 DUP2 PUSH2 0xB64 JUMP JUMPDEST DUP3 MSTORE POP POP JUMP JUMPDEST PUSH1 0x0 PUSH1 0x20 DUP3 ADD SWAP1 POP PUSH2 0xB94 PUSH1 0x0 DUP4 ADD DUP5 PUSH2 0xB70 JUMP JUMPDEST SWAP3 SWAP2 POP POP JUMP JUMPDEST PUSH2 0xBA3 DUP2 PUSH2 0xAF9 JUMP JUMPDEST DUP3 MSTORE POP POP JUMP JUMPDEST PUSH1 0x0 PUSH1 0x20 DUP3 ADD SWAP1 POP PUSH2 0xBBE PUSH1 0x0 DUP4 ADD DUP5 PUSH2 0xB9A JUMP JUMPDEST SWAP3 SWAP2 POP POP JUMP JUMPDEST PUSH1 0x0 DUP1 PUSH1 0x40 DUP4 DUP6 SUB SLT ISZERO PUSH2 0xBDB JUMPI PUSH2 0xBDA PUSH2 0x809 JUMP JUMPDEST JUMPDEST PUSH1 0x0 PUSH2 0xBE9 DUP6 DUP3 DUP7 ADD PUSH2 0x9ED JUMP JUMPDEST SWAP3 POP POP PUSH1 0x20 DUP4 ADD CALLDATALOAD PUSH8 0xFFFFFFFFFFFFFFFF DUP2 GT ISZERO PUSH2 0xC0A JUMPI PUSH2 0xC09 PUSH2 0x80E JUMP JUMPDEST JUMPDEST PUSH2 0xC16 DUP6 DUP3 DUP7 ADD PUSH2 0x92B JUMP JUMPDEST SWAP2 POP POP SWAP3 POP SWAP3 SWAP1 POP JUMP JUMPDEST PUSH1 0x0 DUP2 MLOAD SWAP1 POP SWAP2 SWAP1 POP JUMP JUMPDEST PUSH1 0x0 DUP3 DUP3 MSTORE PUSH1 0x20 DUP3 ADD SWAP1 POP SWAP3 SWAP2 POP POP JUMP JUMPDEST PUSH1 0x0 DUP2 SWAP1 POP PUSH1 0x20 DUP3 ADD SWAP1 POP SWAP2 SWAP1 POP JUMP JUMPDEST PUSH1 0x0 DUP3 DUP3 MSTORE PUSH1 0x20 DUP3 ADD SWAP1 POP SWAP3 SWAP2 POP POP JUMP JUMPDEST PUSH1 0x0 PUSH2 0xC68 DUP3 PUSH2 0xA2F JUMP JUMPDEST PUSH2 0xC72 DUP2 DUP6 PUSH2 0xC4C JUMP JUMPDEST SWAP4 POP PUSH2 0xC82 DUP2 DUP6 PUSH1 0x20 DUP7 ADD PUSH2 0xA4B JUMP JUMPDEST PUSH2 0xC8B DUP2 PUSH2 0x81D JUMP JUMPDEST DUP5 ADD SWAP2 POP POP SWAP3 SWAP2 POP POP JUMP JUMPDEST PUSH1 0x0 PUSH2 0xCA2 DUP4 DUP4 PUSH2 0xC5D JUMP JUMPDEST SWAP1 POP SWAP3 SWAP2 POP POP JUMP JUMPDEST PUSH1 0x0 PUSH1 0x20 DUP3 ADD SWAP1 POP SWAP2 SWAP1 POP JUMP JUMPDEST PUSH1 0x0 PUSH2 0xCC2 DUP3 PUSH2 0xC20 JUMP JUMPDEST PUSH2 0xCCC DUP2 DUP6 PUSH2 0xC2B JUMP JUMPDEST SWAP4 POP DUP4 PUSH1 0x20 DUP3 MUL DUP6 ADD PUSH2 0xCDE DUP6 PUSH2 0xC3C JUMP JUMPDEST DUP1 PUSH1 0x0 JUMPDEST DUP6 DUP2 LT ISZERO PUSH2 0xD1A JUMPI DUP5 DUP5 SUB DUP10 MSTORE DUP2 MLOAD PUSH2 0xCFB DUP6 DUP3 PUSH2 0xC96 JUMP JUMPDEST SWAP5 POP PUSH2 0xD06 DUP4 PUSH2 0xCAA JUMP JUMPDEST SWAP3 POP PUSH1 0x20 DUP11 ADD SWAP10 POP POP PUSH1 0x1 DUP2 ADD SWAP1 POP PUSH2 0xCE2 JUMP JUMPDEST POP DUP3 SWAP8 POP DUP8 SWAP6 POP POP POP POP POP POP SWAP3 SWAP2 POP POP JUMP JUMPDEST PUSH1 0x0 PUSH1 0x20 DUP3 ADD SWAP1 POP DUP2 DUP2 SUB PUSH1 0x0 DUP4 ADD MSTORE PUSH2 0xD46 DUP2 DUP5 PUSH2 0xCB7 JUMP JUMPDEST SWAP1 POP SWAP3 SWAP2 POP POP JUMP JUMPDEST PUSH32 0x4F6E6C792077686974656C697374000000000000000000000000000000000000 PUSH1 0x0 DUP3 ADD MSTORE POP JUMP JUMPDEST PUSH1 0x0 PUSH2 0xD84 PUSH1 0xE DUP4 PUSH2 0xA3A JUMP JUMPDEST SWAP2 POP PUSH2 0xD8F DUP3 PUSH2 0xD4E JUMP JUMPDEST PUSH1 0x20 DUP3 ADD SWAP1 POP SWAP2 SWAP1 POP JUMP JUMPDEST PUSH1 0x0 PUSH1 0x20 DUP3 ADD SWAP1 POP DUP2 DUP2 SUB PUSH1 0x0 DUP4 ADD MSTORE PUSH2 0xDB3 DUP2 PUSH2 0xD77 JUMP JUMPDEST SWAP1 POP SWAP2 SWAP1 POP JUMP JUMPDEST PUSH32 0x4E487B7100000000000000000000000000000000000000000000000000000000 PUSH1 0x0 MSTORE PUSH1 0x11 PUSH1 0x4 MSTORE PUSH1 0x24 PUSH1 0x0 REVERT JUMPDEST PUSH1 0x0 PUSH2 0xDF4 DUP3 PUSH2 0x9A2 JUMP JUMPDEST SWAP2 POP PUSH2 0xDFF DUP4 PUSH2 0x9A2 JUMP JUMPDEST SWAP3 POP DUP3 DUP3 LT ISZERO PUSH2 0xE12 JUMPI PUSH2 0xE11 PUSH2 0xDBA JUMP JUMPDEST JUMPDEST DUP3 DUP3 SUB SWAP1 POP SWAP3 SWAP2 POP POP JUMP JUMPDEST PUSH32 0x4E487B7100000000000000000000000000000000000000000000000000000000 PUSH1 0x0 MSTORE PUSH1 0x32 PUSH1 0x4 MSTORE PUSH1 0x24 PUSH1 0x0 REVERT JUMPDEST PUSH32 0x4E487B7100000000000000000000000000000000000000000000000000000000 PUSH1 0x0 MSTORE PUSH1 0x22 PUSH1 0x4 MSTORE PUSH1 0x24 PUSH1 0x0 REVERT JUMPDEST PUSH1 0x0 PUSH1 0x2 DUP3 DIV SWAP1 POP PUSH1 0x1 DUP3 AND DUP1 PUSH2 0xE93 JUMPI PUSH1 0x7F DUP3 AND SWAP2 POP JUMPDEST PUSH1 0x20 DUP3 LT DUP2 SUB PUSH2 0xEA6 JUMPI PUSH2 0xEA5 PUSH2 0xE4C JUMP JUMPDEST JUMPDEST POP SWAP2 SWAP1 POP JUMP JUMPDEST PUSH32 0x4F6E6C79206F776E657200000000000000000000000000000000000000000000 PUSH1 0x0 DUP3 ADD MSTORE POP JUMP JUMPDEST PUSH1 0x0 PUSH2 0xEE2 PUSH1 0xA DUP4 PUSH2 0xA3A JUMP JUMPDEST SWAP2 POP PUSH2 0xEED DUP3 PUSH2 0xEAC JUMP JUMPDEST PUSH1 0x20 DUP3 ADD SWAP1 POP SWAP2 SWAP1 POP JUMP JUMPDEST PUSH1 0x0 PUSH1 0x20 DUP3 ADD SWAP1 POP DUP2 DUP2 SUB PUSH1 0x0 DUP4 ADD MSTORE PUSH2 0xF11 DUP2 PUSH2 0xED5 JUMP JUMPDEST SWAP1 POP SWAP2 SWAP1 POP JUMP JUMPDEST PUSH1 0x0 DUP2 SWAP1 POP DUP2 PUSH1 0x0 MSTORE PUSH1 0x20 PUSH1 0x0 KECCAK256 SWAP1 POP SWAP2 SWAP1 POP JUMP JUMPDEST PUSH1 0x0 DUP2 SLOAD PUSH2 0xF3A DUP2 PUSH2 0xE7B JUMP JUMPDEST PUSH2 0xF44 DUP2 DUP7 PUSH2 0xA3A JUMP JUMPDEST SWAP5 POP PUSH1 0x1 DUP3 AND PUSH1 0x0 DUP2 EQ PUSH2 0xF5F JUMPI PUSH1 0x1 DUP2 EQ PUSH2 0xF71 JUMPI PUSH2 0xFA4 JUMP JUMPDEST PUSH1 0xFF NOT DUP4 AND DUP7 MSTORE PUSH1 0x20 DUP7 ADD SWAP4 POP PUSH2 0xFA4 JUMP JUMPDEST PUSH2 0xF7A DUP6 PUSH2 0xF18 JUMP JUMPDEST PUSH1 0x0 JUMPDEST DUP4 DUP2 LT ISZERO PUSH2 0xF9C JUMPI DUP2 SLOAD DUP2 DUP10 ADD MSTORE PUSH1 0x1 DUP3 ADD SWAP2 POP PUSH1 0x20 DUP2 ADD SWAP1 POP PUSH2 0xF7D JUMP JUMPDEST DUP1 DUP9 ADD SWAP6 POP POP POP JUMPDEST POP POP POP SWAP3 SWAP2 POP POP JUMP JUMPDEST PUSH1 0x0 PUSH1 0x40 DUP3 ADD SWAP1 POP DUP2 DUP2 SUB PUSH1 0x0 DUP4 ADD MSTORE PUSH2 0xFC7 DUP2 DUP6 PUSH2 0xF2D JUMP JUMPDEST SWAP1 POP DUP2 DUP2 SUB PUSH1 0x20 DUP4 ADD MSTORE PUSH2 0xFDB DUP2 DUP5 PUSH2 0xA7E JUMP JUMPDEST SWAP1 POP SWAP4 SWAP3 POP POP POP JUMP INVALID LOG2 PUSH5 0x6970667358 0x22 SLT KECCAK256 0xD5 BYTE DUP16 EXP LOG3 SSTORE CODECOPY ADDRESS ADDRESS PUSH25 0x6760FC28443EE71D8D43B62C5234F91814AE38560C964736F PUSH13 0x634300080D0033000000000000 "
				},
				"gasEstimates": {
					"creation": {
						"codeDepositCost": "824400",
						"executionCost": "49479",
						"totalCost": "873879"
					},
					"external": {
						"addInfo(string)": "infinite",
						"addMember(address)": "27026",
						"delMember(address)": "27027",
						"getInfo(uint256)": "infinite",
						"listInfo()": "infinite",
						"owner()": "2514",
						"setInfo(uint256,string)": "infinite",
						"whiteList(address)": "2912"
					}
				},
				"methodIdentifiers": {
					"addInfo(string)": "0bf803e4",
					"addMember(address)": "ca6d56dc",
					"delMember(address)": "1f81595d",
					"getInfo(uint256)": "1a3cd59a",
					"listInfo()": "d03d5849",
					"owner()": "8da5cb5b",
					"setInfo(uint256,string)": "b6820002",
					"whiteList(address)": "372c12b1"
				}
			},
			"storageLayout": {
				"storage": [
					{
						"astId": 4,
						"contract": "RegisterAccess.sol:RegisterAccess",
						"label": "info",
						"offset": 0,
						"slot": "0",
						"type": "t_array(t_string_storage)dyn_storage"
					},
					{
						"astId": 6,
						"contract": "RegisterAccess.sol:RegisterAccess",
						"label": "owner",
						"offset": 0,
						"slot": "1",
						"type": "t_address"
					},
					{
						"astId": 10,
						"contract": "RegisterAccess.sol:RegisterAccess",
						"label": "whiteList",
						"offset": 0,
						"slot": "2",
						"type": "t_mapping(t_address,t_bool)"
					}
				],
				"types": {
					"t_address": {
						"encoding": "inplace",
						"label": "address",
						"numberOfBytes": "20"
					},
					"t_array(t_string_storage)dyn_storage": {
						"base": "t_string_storage",
						"encoding": "dynamic_array",
						"label": "string[]",
						"numberOfBytes": "32"
					},
					"t_bool": {
						"encoding": "inplace",
						"label": "bool",
						"numberOfBytes": "1"
					},
					"t_mapping(t_address,t_bool)": {
						"encoding": "mapping",
						"key": "t_address",
						"label": "mapping(address => bool)",
						"numberOfBytes": "32",
						"value": "t_bool"
					},
					"t_string_storage": {
						"encoding": "bytes",
						"label": "string",
						"numberOfBytes": "32"
					}
				}
			},
			"userdoc": {
				"kind": "user",
				"methods": {},
				"version": 1
			}
		}
	}
}